:020000040800F2
:10000000D02400201D02000821020008230200085D
:10001000250200082702000829020008000000004D
:100020000000000000000000000000002B0200089B
:100030002D020008000000002F0200083102000815
:100040009F1000083302000833020008B91E0008A0
:10005000330200083302000881150008330200084B
:10006000750E00089D0E0008C50E0008330200083A
:10007000330200083302000833020008330200088C
:10008000330200083302000833020008330200087C
:100090003302000833020008330200085F0F000833
:1000A000330200083302000833020008330200085C
:1000B00029340008D9100008EB1F0008330200089B
:1000C000330200083302000833020008330200083C
:1000D00033020008330200080F0900083302000849
:1000E00041220008330200083302000833020008EE
:1000F000330200083302000833020008330200080C
:1001000033020008330200084713000833020008D6
:1001100033020008330200087F140008330200088D
:1001200033020008330200083302000833020008DB
:1001300000F002F800F05CF80AA090E8000C82449D
:100140008344AAF10107DA4501D100F051F8AFF27A
:10015000090EBAE80F0013F0010F18BFFB1A43F0A5
:1001600001031847304B0000504B00000A444FF089
:10017000000C10F8013B13F0070408BF10F8014B06
:100180001D1108BF10F8015B641E05D010F8016B4B
:10019000641E01F8016BF9D113F0080F1EBF10F8AF
:1001A000014BAD1C0C1B09D16D1E58BF01F801CBD2
:1001B000FAD505E014F8016B01F8016B6D1EF9D555
:1001C0009142D6D37047000000230024002500266A
:1001D000103A28BF78C1FBD8520728BF30C148BFAA
:1001E0000B6070471FB504F0F6F91FBD10B510BDC8
:1001F00003F090FD1146FFF7F5FF00F0E8F803F07B
:10020000AEFD03B4FFF7F2FF03BC03F0B3FD000043
:1002100030BF72B662B680F308887047084800475E
:10022000FEE7FEE7FEE7FEE7FEE7FEE7FEE7FEE7A6
:10023000FEE7FEE703480449044A054B7047000007
:1002400031010008D01E0020D0240020D020002042
:10025000D020002070477CB59925002001902EE029
:10026000BDF80400C0EB80109E4901EB00149E48CD
:1002700000782070BDF8040060804FF47A70009020
:10028000BDF80000A080BDF8040000EB4002C2EB06
:10029000C010964A02EBC0014FF47A72A01D03F021
:1002A000BBFC45F2AA50009004F57A70BDF800102E
:1002B000A4F8EE13BDF80400401C80B20190BDF814
:1002C0000400A842CCDBBDF80400C0EB80108549D7
:1002D00001EB0014844800882080BDF80400608091
:1002E00005EB4500C0EBC5104FF41631A1EBC00083
:1002F00080B20090BDF80000A080BDF8040000EBC3
:100300004002C2EBC010794A02EBC001BDF80020E8
:10031000A01D03F081FC45F2AA50009004F5167070
:10032000BDF80010A4F85E127CBD10B5704A1278BA
:10033000022A4BD100226F4B1A606F4BC3F89021F9
:100340004FF001026D4B1A604FF000021A604FF03F
:100350000102684B1A60684BC3F890214FF000000F
:1003600025E00022654B1A60654A9268D1B24FF0D1
:100370000102614BC3F890214FEA01214FF00002C6
:10038000C3F890215E4A9268D2B242EA01014FF06E
:100390000102C3F890214FEA11234FEA400202F113
:1003A0000102524CA35404F8101000F10100B0F502
:1003B000963FD6D34FF48072524B1A6000224C4BBA
:1003C0001A70514A1278521C4F4B1A7010BD0024FB
:1003D0000025092000F016FAFFF73CFF4FF4E13149
:1003E0004A4800F015FC482000F0A4F802F002FF93
:1003F00002F0DAFB4648007802F075FC45480078C8
:1004000002F09FFC4448007802F0D8FC4348007892
:1004100002F0EDFC4248007802F002FD41F61F4177
:10042000092000F0C6FE41F61F4142F2107001F0B3
:1004300035F800F0B9FD4FF4A073F022AE210A2088
:1004400002F023FD0020374908604FF002002849E0
:1004500008704FF000003449087041E02E480678DB
:100460002E4805782B4804782F48007820B10020CA
:100470002D49087000F0B0FB2C4890F8A7002649E1
:1004800008702A4890F8A80024490870274890F876
:10049000A9002049087020480078B04207D11F48C1
:1004A0000078A84203D108460078A04211D01A482B
:1004B000007802F083FC1948007802F098FC154897
:1004C000007802F03EFC144806781448057811487C
:1004D0000478FFF72AFF1648007808B1FFF7BBFE43
:1004E000BCE7000000000A68350000200000056835
:1004F00055000020B8012442008021429081214211
:100500000010014014040140640000200051250245
:100510003000002031000020320000203300002095
:1005200034000020BC0124425800002010020020AA
:10053000360000204FF0E021096921F004014FF05E
:10054000E0221161C21700EB5272D2101F4B1A70D9
:10055000194609784FF47A7251431D4A1180704749
:1005600001461A4A12784A434FF0E0235A610022AA
:100570009A6101221A6100BF4FF0E022106910F069
:10058000010F02D010F4803FF6D000224FF0E0239C
:100590001A619A61704701460D4A12884A434FF02A
:1005A000E0235A6100229A6101221A6100BF4FF0D4
:1005B000E022106910F0010F02D010F4803FF6D055
:1005C00000224FF0E0231A619A6170473800002042
:1005D0003A000020AC4A0A400243AC4B1A60704714
:1005E0000146072323EA01021202A84B1B1D1868CB
:1005F0004FF6FF031840A64B18431043A34B1B1D97
:10060000186070472DE9F0478046894614461D461C
:100610002046E11704EB91714FEAA10AE11704EBC0
:1006200091718910A4EB8101CFB2042000EBC700C7
:10063000C7B22846FFF7D4FFC5F1040008FA00F658
:100640000F20284100EA0900064306F00F06202C7F
:100650000CDA904800684FF0010101FA04F140EA19
:1006600001004FF0E021C1F800010DE08A48006868
:10067000A4F120014FF0010202FA01F240EA020067
:100680004FF0E021C1F80401844850F82A0006FA2E
:1006900007F140EA0100814941F82A00BDE8F087EE
:1006A00070B504460B46CE1701EB9676B010CE1708
:1006B00001EB9676B610A1EB8606B606350E784BA2
:1006C0009B6943F00103764EB3614FEAB63353F8AA
:1006D00020300F26AE40B343724E46F820303346EA
:1006E00053F8203004FA05F633436E4E46F82030B6
:1006F0006D4B1E6801238B401E436B4B1E6012F036
:10070000010F08D0684B0C331B6801268E40334321
:10071000654E0C36336012F0020F08D0624B08337E
:100720001B6801268E4033435F4E0836336070BD30
:1007300000B500205A490861C860142048610020B3
:100740008861C8610846006840F0010008600846FA
:100750004068564908405249486008460068544974
:1007600008404F4908600846006820F4802008606F
:100770000846406820F4FE004860002088600021A0
:100780004FF00060FFF726FF00BD10B53F4808306E
:10079000006840F004003D49083108604048C069E5
:1007A00040F080503E49C8614248406840F4807043
:1007B000404948600846006840F004000860084668
:1007C000006840F002000860FFF722FD10BD3048CD
:1007D000001D2E49091D0860704701464906304A30
:1007E000926942F001022E4B9A612E4A083A5268F1
:1007F00022F0E0622B4B083B5A601A4652680A43CB
:100800005A60704730B504460025FFF791FF244831
:10081000006840F480302249086000BF204800682A
:10082000400CFBD04FF480601D494860A01EC4B24C
:100830000846406840EA844048600846406840F402
:10084000803048601C48006840F032001A49086057
:100850001348006840F080701149086000BF1048DC
:100860000068400EFBD00E48406840F002000C4982
:10087000486005E00A484068C0F3870505F00305B5
:10088000022DF7D130BD000080FFFF1F08ED00E012
:100890000000FA0500E100E004E100E000E400E00F
:1008A0000010024008000140000401400000FFF871
:1008B000FFFFF6FE0070004000200240FE48008866
:1008C00020F04000FC4908800020FC49086002201C
:1008D000091D0860F848008840F02000F6490880AB
:1008E000F5480C38008820F04000F3490C390880A6
:1008F0000846008820F0200008800020F0490860A9
:10090000F0490860F0490880F0490880704700B558
:10091000E9480C38008810F0200F1AD0E6480C384F
:10092000008820F02000E4490C390880E64800885F
:1009300040280EDA081D0088E5490968E24A128855
:100940008854E1480088401CDF4908800A20E149BA
:100950000870D9480C38008810F0400F1DD0D648D8
:100960000C38008820F04000D3490C390880D44866
:100970000068D449096888420DD2D7480068D04938
:100980000968405CCC4908390880CD480068401CA3
:10099000CB49086001E0FFF791FF00BD10B50346A9
:1009A000002002E00C5C1C54401C9042FAD310BDA5
:1009B00070B503460C46FF25FF2600220AE0985C2E
:1009C00080EA0501C548405C80EA0605C448465CEB
:1009D000501CC2B2A242F2DB46EA052070BDF0B55F
:1009E00005460C46A01EC1B22846FFF7E1FF0646A9
:1009F000601E295CA01E285C41EA0027BE4201D18E
:100A00000120F0BD0020FCE70020B14909684870D2
:100A10000220AA49086044F24020AC490880002026
:100A2000A7490860A448008820F02000A249088057
:100A30000846008840F0400008809F480C38008835
:100A400020F040009C490C390880A34800689C496C
:100A50000968405C98490839088099480068401C3A
:100A600097490860704718B599480068C078984958
:100A70000968897800EB012084B295480068007805
:100A80009549096808709248006840789249096859
:100A900048708F4800684078032818D18C48006857
:100AA000407940000090BDF800008B4909688870CB
:100AB0008C480119BDF8002087480068C01CFFF76A
:100AC0006DFFBDF80000401D7E49086067E080486A
:100AD00000684078062812D18249081902227C4910
:100AE0000968091DFFF75AFF0822794801687A480A
:100AF0000068FFF753FF0820724908604FE0744810
:100B000000684078102817D17148006880790090FB
:100B100074490819BDF800206D490968C91DFFF71F
:100B20003DFF06226A4801686B480068FFF736FF00
:100B300008206449086032E0654800684078202851
:100B40002DD1992C00DD18BD14B90020664908701C
:100B5000C4EB8410654A02EB0010011D02226846B6
:100B6000FFF71CFFBDF80000083080B20090C4EB16
:100B700084105E4A02EB0011BDF800205648006860
:100B8000FFF70CFFBDF80000B0F57C7F02D001201C
:100B900055490870BDF800004A490860D3E7494844
:100BA0000068801EC1B24C480068FFF701FF00904A
:100BB000BDF80000C1B243480068401E464A1268B2
:100BC0001154BDF8000001123E480068801E424AE0
:100BD0001268115400BFB6E730B505463C480068BE
:100BE00000784349097888420DD137480088C1B25E
:100BF00037480068FFF7F3FE044604B930BDFFF73D
:100C000032FFFFF701FF00202F49088000BFF5E702
:100C10002DE9F05F07460D46280103F001FC8146EF
:100C2000384603F0FDFB8246494603F017FB0646B3
:100C3000304603F0D5FB84B2204603F0F1FB834637
:100C4000314603F0D4FC82464FF0834103F0FCFBB5
:100C5000814603F0C5FB1FFA80F82005040C04EB65
:100C6000080084B22348806940F008002149886167
:100C70000846806940F0040088610846C06940F475
:100C80000030C8611C48006820F47F401A490860A1
:100C90000846006840F40B400860084810380068B7
:100CA00020F0F0000549103908600846006840F05F
:100CB00010000860081D21E00C440040100C0140A9
:100CC000500000204C000020480000205E00002062
:100CD000400000203C00002044000020EE460008B8
:100CE000EE470008100200203600002000000A68CD
:100CF000350000200010024000080140006820F488
:100D00007040091D08600846006840F48050086083
:100D10001448006940F4003012490861084600692F
:100D200020F40030086110480480001D008842F261
:100D30000C0108430C49091D08800846008840F052
:100D40002000088008480838008820F04000064944
:100D5000083908800223262203210846FFF752FCA7
:100D6000BDE8F09F00100240084400403748806909
:100D700040F00400354988610846806940F0400031
:100D800088613348006820F00F0031490860084648
:100D9000006840F0080008602E4800682E490840AE
:100DA0002C490860084600682C4908432949086016
:100DB00028480C30006840F01C0026490C310860BF
:100DC000704710B5044614B1012025490870244825
:100DD000007838B32348006848B12348006830B130
:100DE0002248006818B12248006801281AD10A2058
:100DF000FFF7D1FB00201A4908701A48006808B9AB
:100E0000012010BD1848006808B90220F9E717480A
:100E1000006808B90320F4E715480068012813D1D9
:100E20000420EEE70F48006801280DD10E48006845
:100E3000012809D10D480068012805D10C48006837
:100E400010B90120064908700020DAE700100240BE
:100E50000008014000180140FF00F0FF0088080072
:100E600054000020100123420C01234208012342B8
:100E70000001214210B50A20FFF78DFB51480068A0
:100E800038B95148006808B9012000E000204E49F7
:100E900008604FF004004D49086010BD10B50A20ED
:100EA000FFF779FB4A48006838B94A48006808B932
:100EB000012000E00020474908604FF00800434946
:100EC000086010BD10B50A20FFF765FB42480068B6
:100ED00080B93D48006808B9012000E000203A4987
:100EE00008603E48D0F8940108B9012000E00020D5
:100EF000384908604FF010003449086010BD10B543
:100F0000FFF734FF022200210846FFF7C9FB012248
:100F100002210420FFF7C4FB012203210420FFF774
:100F2000BFFB012204210846FFF7BAFB0223062279
:100F300003211846FFF766FB0223082219461846CC
:100F4000FFF760FB0223092201211846FFF75AFB35
:100F500002230A2200211846FFF754FB10BD1B484C
:100F6000006810F4807F1AD01D480078022816DA35
:100F70001B48007850B900201A4908604FF0010062
:100F80001949C1F898011949086002E00020174981
:100F900008601348007800F10100114908704FF40F
:100FA00080700A490860704710B5022208210020AD
:100FB000FFF776FB0223172200210846FFF722FBEA
:100FC00010BD000008012342948121421404014015
:100FD0000C012342940123421001234200002342CA
:100FE0005500002098812242008022428C812142BB
:100FF00045F25552334B1A601A46506091604AF6DA
:10100000AA221A604CF6CC421A6070474AF6AA200F
:101010002C490860704770B506460C4615462A48AC
:10102000C06940F400602849C86128480078304011
:10103000264908702648006840EAC510244908601F
:10104000084600684FF6807108402149086008464C
:10105000006820430860081F00681C49097808439D
:101060001B49091F08600846006840F080000860BE
:101070000223002203211846FFF7C4FA0020144976
:10108000091D0860081F006840F40070091F08600F
:1010900070BD00F07F010E4A121F1160704700B54D
:1010A0000A480078FFF7F5FF00200949091D08608C
:1010B0000848006808B9012000E0002005490860E0
:1010C00000BD00000030004000100240560000202B
:1010D000042C00409401234210B5FE48008810F013
:1010E000010F5FD0FC480078401CFB49087008469F
:1010F00000780A2806DB00200870F8480078401CB9
:10110000F6490870F54800780A2807DB0020F34903
:101110000870F3480078401CF1490870F0480078E6
:101120000A2814DB0020EE490870EE48006810F42D
:10113000006F07D00020EB49091D0860C814091D85
:10114000086004E04FF40060E649091D0860E648C5
:101150000088002809DDE4480088401EE249088034
:101160000846008808B9FFF7A9FBE0480088002876
:1011700009DDDE480088401EDC49088008460088FA
:1011800008B9FFF79BFBDA48007800280ADDD84849
:101190000078401ED64908700846007810B9012032
:1011A000D4490870CB48008820F00100C949088064
:1011B00010BD70B505460C46CF48C06940F002002E
:1011C000CD49C861C3481C300580001F0480C14858
:1011D000001F008840F00100BE49091F0880BD487B
:1011E0001038008840F00100BA4910390880022305
:1011F0001D2203210120FFF705FA70BDBE4AD26906
:1012000042F00202BC4BDA611A46926942F00802CF
:101210009A61B44A0C3A126822F47002B14B0C3B4A
:101220001A601A46126842F430021A60B24A926991
:1012300042F00102B04B9A61B04A526822F4406217
:10124000AE4B5A601A46526842F400625A60A14A94
:101250001C321080121F11809E4A0832128842F4FC
:10126000E0429C4B08331A801A46128842F400620E
:101270001A80984A1032128842F01002954B1033AF
:101280001A80DA13934B103B1A801A46128842F0E8
:1012900001021A80704770B504460D469648C06931
:1012A00040F008009449C8610846806940F0040095
:1012B00088619348006820F00F0091490860084653
:1012C000006840F0080008608D480C3000688C49C8
:1012D0000C3108608B480480001F05808948143851
:1012E000008840F0010087491439088008460088CA
:1012F000088008460088088082480C3800888149A8
:101300000C3908800846008840F0010008807D48BC
:101310002038008840F002007A49203908800846C9
:10132000008840F00100088076482C38008840F0A2
:10133000010074492C39088002233222002118460A
:10134000FFF760F970BD6F491C3908886E4909784C
:1013500011F0800F4ED110F0010F1AD06A490978B0
:1013600011F0400F15D06849097801F03F013F297D
:101370000AD16549097841F08001634A11704FF63E
:10138000FF71624A118004E05F490978491C5E4A96
:10139000117010F0020F2DD05B49097811F0400F49
:1013A00013D05949097841F08001574A11705549C5
:1013B00008310988554A118052490C39098821F0B1
:1013C0000201504A0C3A118014E000214E4A11707B
:1013D0004E4A11804C49097841F040014A4A117047
:1013E0000021484A083A1180111F098841F0020182
:1013F000121F11800021434A1C3A118070473E4A57
:10140000D26942F004023C4BDA611A46926942F01A
:1014100008029A61334A0C3A126822F07F42314B3B
:101420000C3B1A601A46126842F096421A60384A1B
:101430001080121F1180364A143A128842F070024E
:10144000334B143B1A801A46128842F008021A8065
:101450002F4A0C3A128842F002022D4B0C3B1A80A4
:101460001A46128842F001021A808022284B2C3B37
:101470001A801A46128842F001021A8070472548E5
:10148000008A10F0010F02D0002023490870214883
:10149000008A20F001001F490882704770B5054698
:1014A0000C461548C06940F010001349C86119483E
:1014B00085850485808940F00100164988810846A9
:1014C000008840F001000880022336220321012019
:1014D00024E0000010040040590000205A000020C1
:1014E0005B0000200C0C01405E000020600000202A
:1014F0003C00002058000020001002400000014085
:10150000000801402C0C00405D000020620000201B
:101510002C0800400010004064000020FFF772F823
:1015200070BD000010B52F48C06840F4FE702D4912
:10153000C860FFF72AF910BD70B50025002400200F
:10154000294908601BE02948006818B1681CC5B229
:10155000002409E0601CC4B2032C05DD01202249EF
:1015600008604FF0000070BD1E20FFF714F8642DD6
:1015700005DB00201C4908604FF00100F3E7E2E7BB
:1015800010B501201A490860FFF7D6FF08B1FFF730
:10159000C9FF10BD10B51348806940F0040011491F
:1015A00088610846806940F0010088611148006840
:1015B00020F00F000F4908600846006840F008005E
:1015C0000860022200210846FFF76AF8FFF7B4FF1F
:1015D00008B9FFF7DAF80223062219461846FFF782
:1015E00011F810BD001002409481214200012142F7
:1015F00014040140000801402C48806940F00400B8
:101600002A4988610846C06940F00050C8612848EE
:10161000006820F4702026490860084600680860C9
:101620002448006840F0010022490860084600682C
:1016300040F002000860084600680860084600683C
:1016400008600846006808600846006808600846A8
:1016500000680860002017490831086070472DE9CC
:10166000F0478046404602F0DBFE8146124948467C
:1016700002F0F4FD81464FF08B41484602F0E4FE53
:10168000824602F05DFD06464FF066320B4B02F0DB
:10169000ABFB044602F076FB8146484602F0A0FE12
:1016A000044908310860BDE8F087000000100240DE
:1016B000000801400074004000007A4466660A4059
:1016C0009748806940F0080095498861954800680E
:1016D00020F47F40934908600846006840F44C506D
:1016E000086090480830006840F440608D49083137
:1016F0000860704710B58B48006820F47040894935
:1017000008600846006840F440500860012086499F
:1017100008608649C1F8A8014FF00400FEF720FFD9
:101720000020814908604FF00400FEF719FF0020F7
:101730007E49C1F8A80110BD10B57A48006820F4B0
:101740007040784908600846006840F440500860DE
:101750000020774908607549C1F8AC014FF00400DA
:10176000FEF7FEFE0120724908607049C1F8AC0125
:101770004FF00400FEF7F4FE10BD10B500246948D8
:10178000006820F47040674908600846006840F42B
:1017900000400860012064490860FEF7E1FE012076
:1017A0006249C1F8A801FEF7DBFE07E0601CC4B285
:1017B000FA2C03DDFFF7C0FF012010BD5D48006873
:1017C0000028F3D15A49086000BFF6E710B50020A1
:1017D000574908605348006820F470405149086038
:1017E0000846006840F4405008604FF000004F4940
:1017F000C1F8AC014FF00200FEF7B2FE01204C49E7
:1018000008604FF00200FEF7ABFE00204749C1F828
:10181000A80110BD10B50020454908604148006886
:1018200020F470403F4908600846006840F440508A
:1018300008604FF001003D49C1F8AC014FF00200D3
:10184000FEF78EFE01203A4908604FF00200FEF7D5
:1018500087FE00203549C1F8A80110BD70B50446C7
:101860003048006820F470402E490860084600683F
:1018700040F44050086000202D49086005461AE0F9
:10188000E009294908604FEA44604FEA10644FF0CC
:101890000200FEF765FE01202449C1F8A8010220DC
:1018A000FEF75EFE0020224908604FF00200FEF7BE
:1018B00057FE681CC5B2082DE2DB70BD70B5054649
:1018C00000241848006820F4704016490860084653
:1018D000006840F400400860002616E0002014492B
:1018E00008604FF00200FEF73BFE01200F49C1F8EF
:1018F000A8016006040E0F48006808B1601CC4B25D
:101900000120FEF72DFE701CC6B2082EE6DB15B9CD
:10191000FFF780FF01E0FFF759FF204670BD000090
:1019200000100240040C0140AC81214200802142A1
:10193000A88121422C81214210B5FFF7C1FE10BDC4
:1019400070B504460026FFF7D5FE2546E11704EBE7
:1019500011610912A02202EB4101C8B2FFF77EFF1C
:10196000FFF70BFFE11704EB11610912A4EB012152
:10197000C8B2FFF773FFFFF700FFFFF7BBFEA12020
:10198000FFF76CFFFFF7F9FE0020FFF797FF064611
:10199000FFF7D2FE304670BD70B504460E46FFF725
:1019A000A9FE2546E11704EB11610912A02202EB02
:1019B0004101C8B2FFF752FFFFF7DFFEE11704EB6A
:1019C00011610912A4EB0121C8B2FFF747FFFFF72D
:1019D000D4FE3046FFF742FFFFF7CFFEFFF7ACFE25
:1019E0000A20FEF7D8FD70BD2DE9F04105460E46F0
:1019F0001746002409E0E20026FA02F2D1B22A19C1
:101A000090B2FFF7C9FF601CC4B2BC42F3DBBDE873
:101A1000F0812DE9F04107460C460026002509E03B
:101A200036023919491B491E88B2FFF789FF06445F
:101A3000681CC5B2A542F3DB3046BDE8F08110B5A5
:101A4000FF20FFF77DFF0446552C01D1002010BD7B
:101A50005521FF20FFF7A0FFFF20FFF771FF04468D
:101A6000552C01D10020F2E70120F0E770B50646C1
:101A70000C46154608E03046721C96B2FFF760FF30
:101A800004F8010B681E85B2002DF4D170BD70B54D
:101A900005460C46164606E021782846FFF77CFFEF
:101AA000681C85B2641C3000A6F101018EB2F3D12E
:101AB00070BD0000F0B503460C461546642093FB4C
:101AC000F0F0C6B2642093FBF0F700FB1730C1B210
:101AD000132E02DD01F16400C1B20846CF1701EBFD
:101AE000977701EBA702072092FBF0F700FB172086
:101AF00082B25719601EDFF810C41CF80000384489
:101B000082B2CF1701EB9777BF10B1EB870703D1F4
:101B1000032C01DA501E82B2072092FBF0F700FB83
:101B20001720C0B2F0BD0146CA1701EB92729210A5
:101B3000B1EB820212D1642091FBF0F200FB121093
:101B400050B94FF4C87091FBF0F200FB121008B9C5
:101B5000012070470020FCE70120FAE70020F8E7A9
:101B600070B5002600240025E84806883604001DCC
:101B700000880644E648B6FBF0F4E6480088A04238
:101B80003CD0E4490C8040F2B27510E02846FFF7E3
:101B9000CAFF40B1B4F5B77F02D3A4F5B77404E02F
:101BA000681C85B206E0A4F26D14681C85B2B4F519
:101BB000B67FEBD800BFD8488580002516E0D6490F
:101BC0008888FFF7B0FF30B1012D04D11D2C01D35F
:101BD0001D3C09E00CE0D148405DA04203D8CF484D
:101BE000405D241A00E003E0681C85B21C2CE6D29C
:101BF00000BF681CC8498871601CC871C448B6FB26
:101C0000F0F100FB11644FF46160B4FBF0F0C249E5
:101C100008704FF46160B4FBF0F100FB11403C210F
:101C2000B0FBF1F0BC4948704FF46160B4FBF0F1D7
:101C300000FB11403C21B0FBF1F201FB1200B64960
:101C400088700B46DA7999799888FFF733FFB249A3
:101C50000872002070BD2DE9F04F06460F469046F1
:101C60009946DDE909AB002440F2B270864203DBFD
:101C700040F63300864202DD0120BDE8F08F40F2DD
:101C8000B2750AE02846FFF74EFF10B1A44804449D
:101C900001E0A4480444681C85B2B542F2DB781E1A
:101CA000C7B2002510E09D48405D40F2A3214843A3
:101CB00004EBC0143046FFF736FF18B1012D01D1F7
:101CC00093480444681C85B2BD42ECDBA8F10100D6
:101CD00040F2A321484304EBC014C9EB4910C0EB08
:101CE000092004EB0014CAEB0A1004EB80045C44E6
:101CF0008D48C06940F080508B49C8610846C06972
:101D000040F00060C8618948006840F480708749ED
:101D100008607E481438008840F010007B49143970
:101D200008807A49091D0C80200C091F088077481B
:101D30001438008820F0100074491439088000BF5E
:101D400072481438008810F0200FF9D0FFF708FF10
:101D5000002092E71CB5002475480088A0F5A0413A
:101D600050397DD07048C06940F080506E49C861DC
:101D70000846C06940F00060C8616C48006840F4E3
:101D800080706A4908606848006A40F4803066499B
:101D900008620846006A20F4803008620846006A3B
:101DA00040F00100086204E0601CC4B20A20FEF7A3
:101DB000F2FB5D48006A10F0020F01D1FA2CF3DB50
:101DC000FA2C01DB01201CBD5748006A40F48070EA
:101DD000554908620846006A40F40040086200BFA6
:101DE0004A481438008810F0200FF9D000BF474847
:101DF0001438008810F0080FF9D0444818380088CB
:101E000040F0010041491839088000BF3F481438AC
:101E1000008810F0200FF9D03C481438008840F0BA
:101E200010003A49143908800020091D088047F63F
:101E3000FF70091D0880372010210D230722CDE9EE
:101E40000010092140F2DC70FFF705FF2F4814381D
:101E5000008820F010002D491439088000BF00E0F0
:101E60000AE02A481438008810F0200FF7D045F215
:101E700050002F49088015E000BF2448143800881E
:101E800010F0080FF9D021481838008840F0010000
:101E90001E491839088000BF1C481438008810F00B
:101EA000200FF9D00223032200210846FEF7AAFBE7
:101EB000FFF756FE002086E700B514481438008866
:101EC00010F0010F01D0FFF74BFE104814380088C6
:101ED00010F0020F07D00D481438008820F00200DF
:101EE0000A491439088009481438008840F6FA7104
:101EF000084006491439088000BF04481438008897
:101F000010F0200FF9D000BDEE480008182800405E
:101F1000805101006600002050160020FA48000899
:101F20000085E2018033E1010010024000700040B2
:101F3000046C004010B5A548C06940F00400A349F6
:101F4000C8610846806940F008008861A0480068C0
:101F500020F0F0009E4908600846006840F08000CC
:101F600008609B480830006840F4007098490831C8
:101F7000086042F21070974908804720091F0880C6
:101F800094481038008840F48070924910390880D5
:101F90000846008840F440500880084600880880C1
:101FA000081D0088091D08800846008840F48050FC
:101FB000088088482038008840F010008549203982
:101FC00008800846008840F00100088081482C38CD
:101FD000008840F001007F492C39088002231E222E
:101FE00003210120FEF70EFB10BD7A491C39088839
:101FF00010F0010F2BD07849097811F0800F26D00E
:102000007549097821F01001734A11701146097859
:1020100011F00F0F04D11146097841F04001117001
:102020006D49097801F00F010E2905DA6A4909782E
:10203000491C694A11700AE06749097821F080015A
:10204000654A11701146097801F0F001117010F025
:10205000100F13D06149096889B15E490C390988AC
:1020600041F400515B4A0C3A11800021121D11808D
:102070005949097841F01001574A117071E05549EA
:1020800014310988564A118052490C39098821F4C3
:102090000051504A0C3A11804F49097811F0100F45
:1020A00059D04D49097811F0800F3FD04C4909882B
:1020B000B1F5967F0DDD4A490988B1F5487F08DA08
:1020C000484909684900474A11601146096811608A
:1020D00041E043490988B1F5AF6F0FDD40490988F8
:1020E000B1F5E16F0ADA3F49096849003D4A1160DC
:1020F0001146096841F0010111602CE03849098856
:1021000040F69802914226DD3549098840F628229A
:10211000914220DA34490978491C334A11702E491A
:10212000097801F0F0012C4A117014E02C4909885B
:1021300041F2680291420EDD2949098841F25C2290
:10214000914208DA2449097841F08001224A11704D
:102150000021254A11702049097821F010011E4AFA
:10216000117000211B4A1C3A1180704710B50020E5
:10217000194B1B7813F0400F26D01A4B1B68190E11
:10218000184B1B68C3F30742D343DBB299420CD10F
:1021900059B9144B1B68C3F30721124B1B68DAB201
:1021A000D343DBB2994200D1084620B10A4B1B78D9
:1021B00013F0800F08D1084B1B7823F04003064C26
:1021C00023700023084C237010BD00000010024053
:1021D000040C01402C0800406800002024812142AA
:1021E000720000206C000020700000204FF400619D
:1021F000FE4A116040B1FD491439096841F400619B
:10220000FA4A143A116007E0F8491439096821F4D0
:102210000061F64A143A1160704700B50020FFF7DC
:10222000E5FFF348406820F47040F14948600846F3
:10223000406840F4405048600020EE49086000BD0E
:1022400000B5EA48006810F4006F7DD04FF40060DC
:10225000E6490860E848007820B90020E74908709E
:10226000E7490870E4480078401CE34908700846D4
:102270000078012816DD084600780A2812DAE048BE
:1022800000784010DE490870DE480068B8B10846A2
:10229000007840F080000870D8480078401CD7498A
:1022A00008700CE0D44800780A2808D1D5480068A6
:1022B00028B1D248007840F08000D0490870CE485C
:1022C00000780B2840D1CD48007800F07F00CA4943
:1022D00008700A46117801EBD1725210B1EB42023C
:1022E00004D1C64A127812F0800F0DD1C24A10787C
:1022F00000EBD0725210A0EB4202012A59D1BF4A22
:10230000127812F0800F54D1BF48007800F00F000F
:10231000B9490870BA480078BC49B74A127888545D
:10232000B54800780F2804DAB7480078401CB64951
:102330000870B548007800F03000AF4908700846D2
:10234000007830B1102800E041E00BD020282FD1D8
:1023500009E0FFF762FFAC48007840F08000AA492E
:10236000087025E024E0AA48007870B9A6480078F3
:1023700000F00F0003281AD1A348007840F0800035
:10238000A1490870FFF749FF11E0A1480078032830
:102390000DD19D48007800F00F00042807D19A481D
:1023A000007840F0800098490870FFF736FF00BFC2
:1023B0000AE09548007840F04000934908700846CC
:1023C000007800F0F000087000208B49087000BD14
:1023D00000B58748406820F4704085494860084649
:1023E000406840F4004048600846406820F470604F
:1023F00048600846406840F40060486001207D491C
:1024000008608449C1F8A801FFF7F0FE00BD70B56F
:10241000044600250CB9012000E00020044609E034
:102420000120FEF79DF8681C85B2B5F57A5F01DDE5
:10243000012070BD78480068A042F1D00020F8E784
:1024400070B50024002520E0601C84B20A20FEF74D
:1024500087F86D48007810F0800F0CD06A4800783B
:1024600000F00E0069490D5C6748007800F07000CC
:10247000654908700AE041F27C50844204DC6248FD
:10248000007810F0400F00D000E0DDE700BFFFF75C
:102490009FFF284670BD70B5054600240020FFF759
:1024A000A5FE5348406820F47040514948600846F2
:1024B000406840F4405048600846406820F470602E
:1024C00048600846406840F4407048600020494930
:1024D00008604FF07800FEF743F800204D49C1F83E
:1024E000A8010A20FEF73CF84148406820F47040FB
:1024F0003F4948600846406840F400404860012079
:102500003C4908604FF00000FFF781FF00284FD1E1
:10251000002617E015F0010F06D001203F490860A2
:1025200004F10100C4B202E000203C4908604FEA17
:1025300065054FF00100FFF76AFF0020FFF767FF16
:10254000701CC6B2082EE5DB204604EBD0714910A2
:10255000B4EB410103D101203049086002E00020C2
:102560002E4908604FF00100FFF751FF0020FFF7F0
:102570004EFF012029490860FFF749FF1C484068C9
:1025800020F470601A4948600846406840F40060D2
:1025900048600020FFF73BFF1E48D0F8280118B91B
:1025A0000120FFF734FF07E0FFF712FF012070BDA5
:1025B000FFF70EFF0220FAE7FFF70AFF0020F6E719
:1025C00010B51748806940F0100015498861084827
:1025D000406820F47F40064948600846406840F45F
:1025E000084048600846C0681CE000001404014030
:1025F00000100140AC01224275000020770000204D
:102600007600002028012242740000205A16002083
:1026100078000020000022422C012242A801224220
:102620000010024040F44060C86001220B210220EB
:10263000FEF736F80223282219460120FDF7E2FFB3
:1026400010BD000089488A4948608A484860704740
:102650008748006940F080008549086170478448D8
:10266000C16811F0010F01D00120704711F0040F73
:1026700001D00220F9E711F0100F01D00320F4E798
:102680000020F2E770B5044600BFFFF7E8FF0546FB
:10269000012D00D006E00120FDF762FF601E84B22C
:1026A000002CF2D100BF04B9FF25284670BD70B5DB
:1026B0000546002445F6FF70FFF7E4FF0446C4B961
:1026C0006B48006940F002006949086108464561AD
:1026D000006940F04000086145F6FF70FFF7D2FF47
:1026E0000446012C05D06248006920F002006049D0
:1026F0000861204670BD70B505460E46FF20FFF705
:10270000C1FF044694B95A48006940F00100584995
:1027100008612E80FF20FFF7B5FF0446012C05D08D
:102720005348006920F0010051490861204670BDFE
:102730000146088870472DE9F04105460E461746C8
:10274000002407E036F814102846FFF7D4FFAD1C2C
:10275000601C84B2BC42F5DBBDE8F08130B50346B5
:102760000C461546002207E01846FFF7E1FF24F863
:1027700012009B1C501C82B2AA42F5DB30BD2DE931
:10278000F05F80468A461746B8F1006F02D33A4898
:10279000804501D3BDE8F09FFFF754FFA8F1006B1F
:1027A0004FEADB25CBF34909C9F58064A74200DC79
:1027B0003C464DE04FF0006101EBC5204A142F4923
:1027C000FFF7CCFF00260BE009EB06002B4931F8A0
:1027D0001000A0F57F41FF3900D003E0701C86B2E5
:1027E000A642F1DB00BFA6421BDA4FF0006101EB0D
:1027F000C520FFF75CFF002608E03AF8160006EB5C
:1028000009011E4A22F81100701C86B2A642F4DBB0
:102810004FF0006101EBC5204A141849FFF78BFF08
:1028200004E0224651464046FFF785FFA74200D10B
:102830000FE06D1C4FF000090AEB440AA044381B5E
:1028400087B2B7F5806F02DD4FF4806400E03C464C
:10285000B0E700BFFFF7FCFE00BF9BE713B50446DF
:10286000012201A92046FFF78AFF1CBD230167450D
:1028700000200240AB89EFCD000008086A16002056
:1028800070B505460C46FEF735FF2220FEF7E6FF41
:10289000FEF773FF2846FEF7E1FFFEF76EFF2012FA
:1028A000FEF7DCFFFEF769FFE0B2FEF7D7FFFEF7A9
:1028B00064FFFEF741FF70BD70B50546FEF71AFFD5
:1028C0002220FEF7CBFFFEF758FF2846FEF7C6FF93
:1028D000FEF753FFFEF70EFF2320FEF7BFFFFEF7C4
:1028E0004CFF0120FEF7EAFF044624020020FEF719
:1028F000E5FF0443FEF720FF204670BD10B5FEF74C
:10290000DFFE0020FFF7D8FF0446A4F5B0400538ED
:1029100037D102210846FFF7B3FF3220FDF73BFE17
:102920004CF201010220FFF7ABFF4FF41670FDF7E8
:1029300032FE48F64F010520FFF7A2FF4FF4F041A9
:102940000720FFF79DFF08211320FFF799FF4FF4A1
:10295000A1511520FFF794FF4FF440411620FFF7D7
:102960008FFF43F226111C20FFF78AFF49F624410E
:102970002220FFF785FF4FF260614720FFF780FFBD
:1029800001E0012010BD0020FCE710B54020FFF75A
:1029900093FF04464FF6F070044021464020FFF7B5
:1029A0006FFF10BD10B54020FFF786FF04464FF6BD
:1029B000F070044044F0010421464020FFF760FF1E
:1029C00010BD10B50B20FFF777FF0446601210BD55
:1029D00070B505460520FFF76FFF04464FF6F0700F
:1029E000044005F00F00044321460520FFF748FF8F
:1029F00070BD70B505460220FFF75EFF044615B1B5
:102A000044F4804401E024F4804421460220FFF78E
:102A100037FF70BD70B505460520FFF74DFF044632
:102A200048F2FF00044044EA052421460520FFF750
:102A300027FF70BD70B505464220FFF73DFF0446F5
:102A40004FF6C07004402C4321464220FFF718FF88
:102A500070BD70B505464220FFF72EFF04464FF6C5
:102A6000FF00044044EA052421464220FFF708FF06
:102A700070BD70B505460320FFF71EFF04464FF6F4
:102A8000F370044044EA850421460320FFF7F8FE72
:102A900070BD70B505460320FFF70EFF04464FF6E4
:102AA000FC7004402C4321460320FFF7E9FE70BD73
:102AB0002DE9F04706460027B8460320FFF7FCFE45
:102AC000044604F01F04C4F3810804F003070FB99F
:102AD0000A2704E0012F01D1142700E00527B8F1EF
:102AE000000F02D142F2FC1510E0B8F1010F02D044
:102AF000B8F1020F02D141F6B05507E05320FFF7BD
:102B0000DBFE054605EB85004004050CAE4201DA0C
:102B1000BDE8F087701B90FBF7F01FFA80F9C9F34E
:102B2000090944EA891444F0100421460320FFF700
:102B3000A7FE1420FDF72FFD00BF0B20FFF7BCFE02
:102B400010F0800FF9D000BFE2E72DE9F041002638
:102B500000270320FFF7B0FE04464FEAA418C4F391
:102B6000810704F003060EB90A2604E0012E01D104
:102B7000142600E0052617B942F2FC150EE0012FDD
:102B800001D0022F02D141F6B05507E05320FFF7E4
:102B900093FE054605EB85004004050C08FB065036
:102BA00084B22046BDE8F08170B50025D94880691F
:102BB00040F00400D74988610846806940F0080069
:102BC00088610846806940F0100088610846806985
:102BD00040F0200088610846806940F48070886178
:102BE000CD48006820F00F00CB4908600846006817
:102BF00040F008000860C8480830006840F4807061
:102C0000C54908310860C548006820F47F20C349E1
:102C100008600846006840F44C300860BF480C303B
:102C2000006840F01800BD490C3108604FF0883052
:102C3000BB4908600846C06840F0FF00C860B9485A
:102C4000006820F07060B74908600846006840F0EE
:102C500040700860B3480C30006840F04000B14953
:102C60000C310860B048406820F07F40AE494860B1
:102C70000846406840F04C5048604FF4E030C8606F
:102C80000120FDF7AAFD00F053F98021122000F089
:102C90005CFA08B1012070BD3220FDF77CFC0B20EE
:102CA00000F072FA0446732C01D00220F3E70A20E8
:102CB00000F06AFA0446762C01D00220EBE70025EA
:102CC0000DE09A4A02EB45025178984A12F8150035
:102CD00000F03BFA0220FDF75EFC681C85B2732D04
:102CE000EFD30020D7E72DE9F0410446E725002681
:102CF0000027012C06D0022C08D0032C0AD0042C6B
:102D000010D10BE0E5255A265C270BE0E525582677
:102D1000602707E0E52584264C2703E0E525962675
:102D2000402700BF00BF2946132000F00EFA3146AD
:102D3000012000F00AFA3946022000F006FABDE848
:102D4000F0812DE9F0410446802522265E2734B12A
:102D5000012C08D0032C0AD0042C10D10BE0402504
:102D600011262F270BE066251B264B2707E0992508
:102D70002826712703E0C02533268D2700BF00BF1A
:102D800029464F2000F0E1F92946502000F0DDF9F6
:102D90000021512000F0D9F93146522000F0D5F938
:102DA0003946532000F0D1F92946542000F0CDF9DE
:102DB0009E21582000F0C9F9BDE8F08170B50446A5
:102DC000002534B1012C06D0032C06D0042C08D1E8
:102DD00005E0B02505E0982503E0182501E0302541
:102DE00000BF00BF2946552000F0AFF970BD70B597
:102DF0000446402534B1012C06D0032C06D0042C07
:102E000008D105E0302505E0382503E0502501E034
:102E1000602500BF00BF2946562000F096F970BD1E
:102E20002DE9F04104460425C0268027072C1DD239
:102E3000DFE804F01C04080C101418002425802678
:102E4000802713E01425802680270FE01425C02654
:102E500080270BE014254026402707E01425802614
:102E6000C02703E01425A026402700BF00BF294645
:102E70003A2000F06AF93146682000F066F93946D8
:102E8000672000F062F9BDE8F0812DE9F0470546C2
:102E90000E469046994605EB48001FFA80FA06EB6D
:102EA000490087B2B7F5447F02DDA7F5447087B2C9
:102EB000032000F069F9044604F0F0040AF003016D
:102EC000284661F39F0004432146032000F03DF9AA
:102ED000C5F38701192000F038F9CAF387011A20D9
:102EE00000F033F9322000F04FF9044604F0C0043A
:102EF00007F00701304661F3DF000443C6F3C70162
:102F0000172000F022F9C7F3C701182000F01DF9BF
:102F1000BDE8F0870010024004080140000C0140A9
:102F20000010014000140140002001400649000843
:102F3000A948806940F48070A74988610846806983
:102F400040F020008861A548406820F47000A34943
:102F500048600846406840F4000048600846C06881
:102F600040F40050C8609E48006820F470409C49BE
:102F700008600846006840F44050086098480C30EB
:102F8000006840F0080096490C310860934840689A
:102F900020F47000914948600846406840F44010B1
:102FA0004860704710B501208E4908608E49C1F80D
:102FB0008C014FF03200FDF7D3FA002089490860F8
:102FC0004FF03200FDF7CCFA00208749C1F88C01A0
:102FD00010BD10B50020834908604FF03200FDF7A6
:102FE000BFFA01208049C1F88C013220FDF7B8FA00
:102FF00001207C4908604FF03200FDF7B1FA10BDA6
:1030000010B53220FDF7ACFA012076490860764908
:10301000C1F88C014FF03200FDF7A2FA002073498D
:1030200008604FF03200FDF79BFA00207049C1F8AC
:10303000B4013220FDF794FA10BD70B504460026A5
:103040001EE014F0800F03D001206649086002E002
:103050000020644908604FEA44604FEA10644FF072
:103060003200FDF77DFA0120604908604FF0320020
:10307000FDF776FA00205C49C1F88C01701CC6B2DD
:10308000082EDEDB5548406820F470005349486044
:103090000846406840F4000048603220FDF760FABE
:1030A0000120524908604FF03200FDF759FA5048AC
:1030B000D0F8340108B1012500E0002500204B497B
:1030C00008604648406820F470004449486008465B
:1030D000406840F440104860284670BD70B5002438
:1030E0003E48406820F470003C494860084640680B
:1030F00040F400004860082518E03220FDF730FA5F
:1031000001203A4908604FEA44604FEA10643848A9
:10311000D0F8340108B1601CC4B23220FDF720FAA7
:10312000002032490860A5F10100C5B2002DE4DCA1
:103130002A48406820F470002849486008464068E2
:1031400040F440104860204670BD70B505460C46FE
:103150000026FFF727FF4220FFF76FFF00B101268F
:103160006420FDF7FDF92846FFF767FF00B101264F
:103170006420FDF7F5F92046FFF75FFF00B1012657
:10318000FFF727FF304670BD70B504460025FFF7F6
:1031900009FF4220FFF751FF6420FDF7E1F92046C7
:1031A000FFF74BFF6420FDF7DBF9FFF712FF642008
:1031B000FDF7D6F9FFF7F6FE4320FFF73EFF642048
:1031C000FDF7CEF9FFF78AFF0546FFF719FFFFF776
:1031D00000FF284670BD00000010024000200140A2
:1031E00000140140B4012442008022428C8122421A
:1031F000000024426348406940F48070614948619E
:103200000846806940F0200088610846806940F0E7
:10321000400088610846806940F080008861084667
:10322000806940F4807088615748006800205649E2
:1032300008600846006840F0BB300860081F00685E
:1032400000F0FF20091F08600846006840F0BB102E
:1032500008604E48006800204C4908600846006835
:1032600040F0BB300860081F0068494908404749E2
:10327000091F086008460068464908434349091F7A
:1032800008604548006880B2434908600846006805
:103290004249084340490860081F006800F07F4029
:1032A000091F0860084600683D4908433A49091F5C
:1032B00008603C48406820F470603A49486008461D
:1032C000406840F4306048600846006800F07F4085
:1032D0000860084600683249084332490860002007
:1032E0004FF02041086148612F4908604FF02040AD
:1032F000006940F480504FF02041086108460069A1
:1033000020F0100008610846406940F440704861B0
:103310000846406948610846406948616FF070405E
:10332000C1F814010846006940F0010008617047C7
:1033300010B506E004784FF0D0435C54491C401CA3
:10334000521E002AF6D110BD06E04FF0D0435B5C60
:1033500000F8013B491C521E002AF6D1704713B5F4
:1033600004460122214601A8FFF7E2FF1CBD18B563
:103370000446012221466846FFF7E6FF9DF800005B
:1033800018BD000000100240041401400418014060
:1033900000FFFF0FBB0000B0041C01400000BBBBDE
:1033A000BBBBBB0000200140140100A030B589B0B8
:1033B00004461E2308AA6946204600F037FA05464F
:1033C00015B1012009B030BD9DF820000444002053
:1033D00008900EE0C6489DF8202050F8221068465C
:1033E00000F08CF900B908E09DF82000401CC0B244
:1033F00008909DF820000828ECDB00BF9DF8200015
:1034000007280CD2DFE800F00405060708090A00C7
:1034100000BF06E005E004E003E002E001E0012077
:10342000D0E700BF0020CDE710B54FF08040008A04
:1034300010F0010F02D0AF49086980474FF080407B
:10344000008A20F001004FF08041088210BD70B565
:1034500005460C46A848C06940F00100A649C8616D
:10346000880485850485808940F00100890488816D
:103470000846808940F0400088810846008840F076
:103480000100088002231C2203210846FDF7BAF838
:1034900070BD10B5044604EBC40000EB041001221B
:1034A000C2EB800081B24FF47A70FFF7D0FF0120A9
:1034B0009049C87510BD30B595B0054613AB12AA3A
:1034C00009A9284600F0D8F9044614B1204615B0E1
:1034D00030BD0020149026E0864909689DF85020F0
:1034E00001EBC20113AB11AA486801A900F0C4F9AD
:1034F00004460CB12046EAE709A901A800F0FEF84D
:1035000060B99DF844009DF84810884201DD022012
:10351000DDE79DF85000774988750AE09DF8500076
:10352000401CC0B214907348007D9DF85010884232
:10353000D2DC00BF6F48007D9DF85010884201D159
:103540000420C4E714A9284600F0DDFA04460CB1B3
:103550002046BCE79DF85000664948750020B6E754
:10356000F0B59BB06348847D007DA04201DC1BB0B8
:10357000F0BD6049096801EBC40107AB08AA4868BF
:1035800009A900F079F9002601E0701CC6B29DF887
:1035900020008642F9DB5748407D0B280DD2DFE83A
:1035A00000F0060D151E27323F4E5F72870051490D
:1035B000096851F834008047054690E04D4A12688A
:1035C00052F8341011988847054688E0494B1B682B
:1035D00053F83420DDE91101904705467FE0454F5F
:1035E0003F6857F8343011A807C89847054676E079
:1035F000DFF800C1DCF800C05CF8347011A80FC817
:10360000B84705466BE01598DFF8E8C00090DCF895
:1036100000C05CF8347011A80FC8B84705465EE0DA
:10362000DDE91501DFF8CCC0CDE90001DCF800C010
:103630005CF8347011A80FC8B84705464FE0DDE9C3
:1036400016211598DFF8ACC0CDE901210090DCF817
:1036500000C05CF8347011A80FC8B84705463EE0BA
:10366000DDE91513DDE91702DFF888C0CDE90013A5
:10367000CDE90202DCF800C05CF8347011A80FC874
:10368000B84705462BE0DDE91623DDE91810CDE942
:103690000123CDE903101598DFF858C00090DCF83D
:1036A00000C05CF8347011A80FC8B847054616E092
:1036B000DDE91723DDE91910CDE90223CDE9041076
:1036C000DDE91501DFF82CC0CDE90001DCF800C010
:1036D0005CF8347011A80FC8B847054600BF00BF9A
:1036E00000BF44E7704701460868704701607047B3
:1036F00084000020240100200010024002460AE05D
:1037000010780B78984201D001207047107800B9EA
:1037100002E0521C491CF3E700BF0020F5E706E079
:1037200002780A70027802B902E0401C491CF7E7EF
:1037300000BF70470146002005E00A7802B903E0A7
:10374000421CD0B2491CF8E700BF704710B50246D2
:10375000012000E050430B00A1F10104E1B2F9D1D6
:1037600010BD2DE9F04307460E4600254FF00A082C
:103770003C46002030601FE02078392802DC2078A9
:1037800030280ADA2078462802DC2078412804DA3A
:103790002078582809D1012D07D12078412801DB54
:1037A0004FF01008681CC5B205E0207800B904E0AD
:1037B0000120BDE8F083641CDEE700BF3C46B8F1A1
:1037C000100F0FD1032D01DA0220F2E72078302804
:1037D00006D16078582803D1A41CA81EC5B204E005
:1037E0000320E6E70DB90420E3E71BE00DB1681EF6
:1037F000C5B22078392806DC2078302803DB207811
:10380000A0F1300902E02078A0F1370929464046AE
:10381000FFF79CFF316809FB00103060641C2078C2
:1038200000B900E0E2E700BF0020C2E710B504469F
:10383000002010700BE020780870641C491C107880
:10384000401C10701078984201DB012010BD2078D8
:10385000202802D020780028EDD10020087000BF79
:10386000F4E70146491C00E0491C0878202801D1F2
:103870000029F9D1087870472DE9FF4F85B08046BF
:1038800089460027002004900390012002904FF009
:10389000000B002544461DE02078202816D005F0B6
:1038A0007F00052812DA0DB945F0800505F07F008C
:1038B000042803D120782A2800D00EE0207805F0D3
:1038C0007F010DF80100681CC5B202E0852D00D112
:1038D00003E0641C20780028DED100BF8DB10020F9
:1038E00005F07F010DF80100C8A16846FFF706FF4B
:1038F00018B900210898017002E0012108980170B0
:1039000000254FF0000A444614E0641C0AF101004F
:1039100000F0FF0A2078202802D020782A2809D138
:103920002046FFF79EFF0646282E03D02A2E01D000
:10393000CDF810A02078282802D020780028E4D1E3
:103940004446049810B10498401C04444FF0000A07
:10395000002654E0207810B94FF0010A50E020789A
:10396000282803D116B9781CC7B213E0207829287B
:1039700008D13EB917B1781EC7B201E04FF0010A75
:1039800047B93DE02078222804D10EB9012000E09B
:103990000020064647B9207820282FD0207889F8C3
:1039A000000009F1010929E020782C2804D1012028
:1039B0000290681CC5B214E02078202811D020782D
:1039C00028280ED04DB9BBF1050F06DA20780DF886
:1039D0000B000BF1010000F0FF0B0298401CC0B27D
:1039E0000290012F0AD10298022807D10298401CA8
:1039F000C0B202900398401CC0B20390641CA9E7B7
:103A000000BF0398012809D100200DF80B007FA109
:103A10006846FFF773FE08B90020039007990398E2
:103A20000870002089F80000504609B0BDE8F08F0A
:103A3000F0B50346154600200022002600244FE082
:103A40001F782C2F01D104B901221F78292F01D012
:103A50001F780FB904B944E0002E34D11F78302FFD
:103A600002DB1F78392F11DD1F78612F02DB1F78F1
:103A7000662F0BDD1F78412F02DB1F78462F05DDF7
:103A80001F78582F02D01F78782F0CD102B128E070
:103A90001F78612F03DB1F78203F0F7001E01F7834
:103AA0000F70491C19E01F78222F04D102B118E0D1
:103AB0000126012411E01F78202F0ED01F782C2F13
:103AC0000BD0FF260DE01F78222F00D1002402B179
:103AD00007E014B11F780F70491C471CF8B25B1C3B
:103AE000AEE700BF00270F702E70F0BD0246002029
:103AF000002105E0474B5B5C0344D8B24B1CD9B2B4
:103B00009142F7DB70472DE9F043B5B005460F460B
:103B10000024002604E000213E488155701CC6B2F6
:103B20000A2EF8DB06E06D1C287818B9012035B0A4
:103B3000BDE8F08328782828F5D16D1C61E034AA0F
:103B400069462846FFF774FF064635449DF8D000C5
:103B500020B1012827D0FF284CD149E09DF8000072
:103B600000B333A96846FFF7FCFD06460EB10220FC
:103B7000DDE72046FFF7BAFF26490A31339A0A509B
:103B8000A1F12400008B0121A140884321491A3969
:103B9000088304211F480155601CC4B20A2C01DDB2
:103BA0000320C4E726E06846FFF7C4FD401C00F090
:103BB000FF082046FFF79AFF16490A3100EB01097A
:103BC00049466846FFF7ABFD12481A38018B0120C1
:103BD000A040014388B20F491A3908830D4800F804
:103BE0000480601CC4B20A2C01DD03209FE701E0C1
:103BF00002209CE700BF2878292801D0287800B946
:103C000000E09CE700BF3C70002090E7766F69649D
:103C1000000000003E010020032A40F2308010F036
:103C2000030C00F0158011F8013BBCF1020F624457
:103C300098BF11F801CB00F8013B38BF11F8013BE8
:103C4000A2F1040298BF00F801CB38BF00F8013B95
:103C500011F0030300F02880083AC0F0088051F802
:103C6000043B083A51F804CBA0E80810F5E7121D10
:103C70005CBF51F8043B40F8043BAFF30080D2072F
:103C800024BF11F8013B11F801CB48BF11F8012BFB
:103C900024BF00F8013B00F801CB48BF00F8012B1E
:103CA000704770477047704710B5203AC0F00B80DE
:103CB000B1E81850203AA0E81850B1E81850A0E830
:103CC0001850BFF4F5AF5FEA027C24BFB1E818508A
:103CD000A0E8185044BF18C918C0BDE810405FEAFA
:103CE000827C24BF51F8043B40F8043B08BF704776
:103CF000D20728BF31F8023B48BF11F8012B28BF7B
:103D000020F8023B48BF00F8012B7047004870477D
:103D10006C1E00207546FFF7F9FFAE4605006946A8
:103D2000534620F00700854618B020B5FCF782FA0C
:103D3000BDE820404FF000064FF000074FF00008AC
:103D40004FF0000B21F00701AC46ACE8C009ACE82D
:103D5000C009ACE8C009ACE8C0098D46704704460C
:103D6000AFF300802046FCF74CFA00000048704793
:103D7000701E002001491820ABBEFEE7260002009D
:103D80007047000021F00042A2F16052B2F5801F9E
:103D900001F0004328BFD2F17F6C0BD95FEA001C11
:103DA00043EAC20242EB507018BF704728BF20F0B0
:103DB00001007047B2F5801FBCBF184670474FEA3C
:103DC000410C1CF5001F02D2084600F00BBC70B578
:103DD00000F062F900000089FFF7F6BF4FF00040E5
:103DE000A0F58000704700002DE9C04130B4DFF835
:103DF000A0C23CEA111418BF3CEA131400F0EC8096
:103E000081EA03051CEA111444EAD57418BF1CEAC0
:103E1000131500F0C780A4EB05044FF0004545EAF8
:103E2000C12145EAC32341EA505143EA525304F108
:103E30007F74994204F500344FEAC0204FEAC22251
:103E400008BF904200F09C804FEA13650FF24016C5
:103E5000765D4FEA134506FB05F7C7F1807706FB51
:103E600007F74FEAD737A7FB03687642C8F58038D3
:103E7000A7FB06CE38BFA8F1010807FB08E64FF004
:103E8000000EA6FB028CE6FB03CEDCF1000CCEF1AB
:103E9000004E38BFAEF1010EA6FB0C584FF00007E4
:103EA0004FF00005E6FB0E87A1FB08C6A0FB07CE7E
:103EB00016EB0E0645F10005E1FB076515F1E04E36
:103EC0007EBFA4F580345FEA46066D4116F1800797
:103ED00045F100054FEA17274FEA066647EA0567EE
:103EE000A6F1DE46B6F1805F4FEA15251FD93846A8
:103EF00024F0010C05EBC471BCF1FE6F01EB0C1159
:103F000002D8F0BCBDE8008124425CBF01F5801EF0
:103F10009EEAC47F02D4F0BCBDE80081244238D4BC
:103F2000F0BCA1F1C041BDE8004100F003B94FEA87
:103F3000D22242EA43524FEAD323A7FB02864FEA3A
:103F4000D02040EA415007FB03661EEA0E0F4FEAFD
:103F5000D12105FB026658BFA6EB0056B6EB005612
:103F60004FEA520E4EEAC37E18EB0E0E56EB530E7E
:103F7000BDD518EB02085E417F1C55F10005B6E780
:103F80004FF480154FF000074FF000064FF0000887
:103F9000ADE7F0BC4FF0000001F1C04101F000417D
:103FA000BDE8008111EA0C1F0CEA131500D00CE0EB
:103FB00013EA0C1F00F025804FF00000F0BC81EAEE
:103FC000030101F00041BDE80081F0BCBDE8004103
:103FD00081EA030100F0AEB8F0BCBDE8004170B565
:103FE00000F05AF8097EFC3E00F007B881EA0301B0
:103FF0004FF0000001F00041704781EA030100F03A
:1040000099B8F0BCBDE800414FF00000214970476D
:10401000FFFDFBF9F7F5F4F2F0EEEDEBE9E8E6E48D
:10402000E3E1E0DEDDDBDAD8D7D5D4D3D1D0CFCD14
:10403000CCCBCAC8C7C6C5C4C2C1C0BFBEBDBCBB4D
:10404000BAB9B8B7B6B5B4B3B2B1B0AFAEADACAB48
:10405000AAA9A8A8A7A6A5A4A3A3A2A1A09F9F9E22
:104060009D9C9C9B9A9999989797969595949393D4
:10407000929191908F8F8E8E8D8C8C8B8B8A89896B
:1040800088888787868585848483838282818180EE
:104090000000FF070000F87F0EF1020E2EF0030E65
:1040A0005EF8046B364205D4012A43EB030515F58F
:1040B000001F12D8012841EB010C1CF5001F0CD881
:1040C0000ED14FEAD17C15F5001F0CEB4C0C0CF116
:1040D000020C08BF4CEBD37C04E04FF0080C01E06D
:1040E0004FEAD37C0CEB4C0526FA05F606F00706E2
:1040F000B6F1040C06D20EEB860CBDE870404CF015
:10410000010C6047DFE80CF0090B02024FF00041A0
:104110004FF00000A1F5002170BD1946104601289E
:1041200051EB010418BFD4F5001484BF002001F046
:10413000004170BD0808A0F500114FEA3101704739
:1041400043004FEAD30C4FEA3C0C43401FBF4007EB
:104150000CF1605113F0FE4F70471CF0006F03D15B
:1041600000200CF0004170470CF0004343EA50700F
:1041700010B540EACC0000F0E8F900BF0000009262
:104180004FEA0001FFF7D6BF4FF000414FF00000AB
:10419000A1F500217047000090EA010F48BF81F0AF
:1041A000004100F13682421A3CBF801A89184FEA5A
:1041B000D0524FF07F4C1CEA410FA2EBD15318BFF5
:1041C0009CEA026F00F03B804FF0004C4CEA00206C
:1041D0004CEA012121FA03FC10EB0C0C1ED202F177
:1041E000FF325FEA1C2040EBC25038BF70471CF022
:1041F0007F0F4FEA400C18BFBCF17F4F38BF7047AC
:10420000C3F12003994008BF20F00100BCF17F4FAB
:1042100038BF7047A0F1C04000F0E4B94FEA3C005D
:10422000000A40EBC25028BF1CF0FF0F4FEA400CC1
:10423000E6D018BFBCF17F4F38BF7047EAE79CEA71
:10424000026F05D010EA5C0F08BF00F00040704715
:1042500010B500F07AF900BF64FBBE3E4FF47F0C4E
:104260001CEAD0121EBF1CEAD11392EA0C0F93EA8B
:104270000C0F00F0858090EA010F48BF42F4807275
:1042800040F4000C41F400002CF07F4120F07F400E
:1042900000B58142A2EB03020FF2081CACEB504EBA
:1042A000C0F100009EF800E04FEA4E0E00FB0EFC4D
:1042B00038BF49004FEA2C1C02F5FA020CFB0EF342
:1042C0004FEACE1E4FEA112C4FEAC1210EEB635E7E
:1042D00042EB22420EFB0CFC4FEA1C5300FB031185
:1042E0004FEA112C4FEA01310EFB0CFC4FEADC4C7B
:1042F00000FB0C11C14228BF09184CEB03335DF8D9
:1043000004EB10EB410143EBC250B2F57C0F38BF18
:10431000704729D512F0F00F1CBF00F1C04000F02B
:1043200000407047008182838485868788898B8CD2
:104330008D8E8F919293959697999A9C9D9FA0A20E
:10434000A3A5A7A8AAACAEB0B2B3B5B7B9BCBEC05E
:10435000C2C5C7C9CCCED1D4D7D9DCDFE2E6E9ECFF
:10436000F0F3F7FAFE0000004FEA400C0CF1807CFD
:10437000BCF17E4F28BF7047B0F1C04000F032B9A9
:1043800090EA010F0CEAD11348BF42F480726245F3
:1043900038BF634507D213F47F0F16D080EA0100BF
:1043A00000F00040704710B500F0CFF8097EFC3EE9
:1043B00000F005B880EA010000F00040704780EA94
:1043C000010000F0004000F00DB912F47F0F04BFAF
:1043D0000248704780EA010000F004B90000C07F85
:1043E000C10DD1F19E0206DB4FEA002343F00043EA
:1043F00023FA02F07047004207D54FEA4001B1F1BD
:10440000FE4F02D24FF00000704710B500F09DF84B
:1044100049922480002070476FEA20007047000016
:10442000B0FA80F310FA03F2C3F19D030AD0D90564
:1044300001EB1220530638BF704700F1010008BF9E
:1044400020F00100704700004FF47F0C1CEAD012EE
:104450001EBF1CEAD11392EA0C0F93EA0C0F00F076
:10446000478090EA010F48BF42F480724FF0004C41
:104470004CEA00204CEA012102EB0302A0FB0113ED
:10448000A2F50002002918BF43F001035B0028BF1A
:104490004FEA330342EB22425FEA132C4CEBC2504B
:1044A0002EBFBCEB436FB2F57C0F70474FEA036C35
:1044B000BCF1004F08BF20F00100B2F57C0F38BFFF
:1044C00070470BD582F0FF0212F5803FC8BF7047DE
:1044D00000F1C040D8BF00F00040704700F5000C6C
:1044E0005FEA4C0C48BF7047B0F1C04000F07AB8AA
:1044F00090EA010F0CEAD11348BF42F48072624582
:1045000038BF634504D280EA010000F000407047E4
:1045100010B500F01AF800BF8900013E00F007B89E
:1045200000F009B85FEA410C5FEA1C6C08D080EA31
:10453000010000F057B85FEA400C5FEA1C6CF6D14E
:104540004FF00040A0F5800070470EF1020E2EF0F3
:10455000030E5EF8044B244204D44FEA4102B2F148
:104560007F4F11D84FEA4003B3F17F4F0CD80ED1E3
:104570004FEAD07CB2F17F4F0CEB4C0C0CF1020CEB
:1045800008BF4CEBD17C04E04FF0080C01E04FEA8F
:10459000D17C0CEB4C0324FA03F404F00704B4F1CF
:1045A000040C06D20EEB840CBDE810404CF0010C5C
:1045B0006047DFE80CF0070802024FF00040A0F56A
:1045C000800010BD0846420018BFD2F1807288BF3B
:1045D00000F0004010BD10B5FFF7C8FB4FF0000120
:1045E000016010BDFF2141EAD050C005704780F046
:1045F000004090EA010F7FF5D6AD81F0004100F058
:1046000008B8000090EA010F48BF81F000413FF573
:10461000CAAD421A04D882F00042A0EB0200114455
:104620004FEAD0524FF07F4C1CEA410FA2EBD1531E
:1046300018BF9CEA026F4AD04FF0004C4CEA0020B1
:104640004CEA012121FA03FCB0EB0C0C0FD412F060
:10465000FE0F36D05FEA4C001DD5001240EBC25071
:1046600038BF70471CF03F0F18BF70470BE0A2F136
:1046700001025FEA1C2040EBC25038BF70471CF0BB
:104680007F0F18BF7047C3F12003994014BF401E2D
:1046900020F00100704780084FEA122308BF7047DE
:1046A000B0FA80FCA2EB0C02CCF1280C60FA0CF002
:1046B00093EA122F04BF00EBC25070474FEAC37059
:1046C0007047130A5FEADC1008BF7047F6E79CEA00
:1046D000026F04D010EA5C0F08BF0020704710B5CD
:1046E000FFF733FF40DFF63E81F00040704700C126
:1046F000814001C0804101C0804100C1814001C0B2
:10470000804100C1814000C1814001C0804101C0A1
:10471000804100C1814000C1814001C0804100C191
:10472000814001C0804101C0804100C1814001C081
:10473000804100C1814000C1814001C0804100C171
:10474000814001C0804101C0804100C1814000C161
:10475000814001C0804101C0804100C1814001C051
:10476000804100C1814000C1814001C0804101C041
:10477000804100C1814000C1814001C0804100C131
:10478000814001C0804101C0804100C1814000C121
:10479000814001C0804101C0804100C1814001C011
:1047A000804100C1814000C1814001C0804100C101
:1047B000814001C0804101C0804100C1814001C0F1
:1047C000804100C1814000C1814001C0804101C0E1
:1047D000804100C1814000C1814001C0804100C1D1
:1047E000814001C0804101C0804100C1814000C0C2
:1047F000C101C30302C2C60607C705C5C404CC0C69
:104800000DCD0FCFCE0E0ACACB0BC90908C8D818D8
:1048100019D91BDBDA1A1EDEDF1FDD1D1CDC14D4E8
:10482000D515D71716D6D21213D311D1D010F03018
:1048300031F133F3F23236F6F737F53534F43CFC28
:10484000FD3DFF3F3EFEFA3A3BFB39F9F83828E8D8
:10485000E929EB2B2AEAEE2E2FEF2DEDEC2CE424A8
:1048600025E527E7E62622E2E323E12120E0A06018
:1048700061A163A3A26266A6A767A56564A46CACE8
:10488000AD6DAF6F6EAEAA6A6BAB69A9A86878B858
:10489000B979BB7B7ABABE7E7FBF7DBDBC7CB47468
:1048A00075B577B7B67672B2B373B17170B0509018
:1048B00091519353529296565797559594549C5CA8
:1048C0005D9D5F9F9E5E5A9A9B5B99595898884858
:1048D00049894B8B8A4A4E8E8F4F8D4D4C8C448428
:1048E0008545874746868242438341818040000355
:1048F000030601040602050003051F1C1F1E1F1EE0
:104900001F1F1E1F1E1F3A0440101214328017165C
:10491000180419021A7A030A0C0C15003E007000E4
:10492000710172117309A20211007A207B1C7C288C
:104930007D3C7E557F68807681808288838F8496D7
:1049400085A386AF87C488D789E813E000001000EC
:104950000D001420A505AB072475256326A59F78B7
:10496000A068A103A6DFA7DFA8F0A990AA9413E589
:104970000E610F4B16021E37210222912907330BBD
:10498000350B371D3871392A3C784D404E20695D12
:104990006B4074198D4F8E008F0090009100920033
:1049A00096009A80B084B10CB20EB382B80A431458
:1049B00044F0453446584728483A59885A885B4459
:1049C0005C675D495E0E6404652066059404950885
:1049D0006C0A6D554F80508051005222535E5480B6
:1049E00009036E116F9F55005640578042265700AD
:1049F0004F666669636500486F6D6500416E746956
:104A0000717565004E65676174697665005265640D
:104A100069736800477265656E69736800426C75FA
:104A2000697368004E6F726D616C004175746F0040
:104A3000436C6F7564790053756E6E79003F006446
:104A400065630069640068656C70006C697374006C
:104A500068657800766F696420546573745F577277
:104A600069746528753332205772697465416464CE
:104A7000722C7531362057726974654461746129EE
:104A800000753820534343425F57525F5265672891
:104A90007538207265672C7538206461746129004F
:104AA0007538205254435F5365742875313620732E
:104AB000796561722C753820736D6F6E2C75382096
:104AC000736461792C753820686F75722C75382085
:104AD0006D696E2C7538207365632900766F696483
:104AE00020524441353832305F42616E645F536515
:104AF000742875382062616E642900766F696420BD
:104B0000415432344358585F57726974654F6E652B
:104B1000427974652875313620577269746541642D
:104B200064722C75382044617461546F57726974D3
:104B3000652900753820534343425F52445F5265F4
:104B400067287538207265672900766F696420527E
:104B50004441353832305F527373695F536574284E
:104B6000753820727373692900766F6964207772D3
:104B70006974655F616464722875333220616464AE
:104B8000722C7533322076616C2900766F6964204F
:104B9000446163315F5365745F566F6C28753136BD
:104BA00020766F6C2900766F696420524441353855
:104BB00032305F566F6C5F53657428753820766F9E
:104BC0006C2900766F696420524441353832305F79
:104BD00054785047415F5365742875382067616980
:104BE0006E2900766F696420524441353832305F57
:104BF000467265715F53657428753136206672653B
:104C0000712900753820415432344358585F526539
:104C100061644F6E6542797465287531362052653E
:104C20006164416464722900753332207265616485
:104C30005F61646472287533322061646472290094
:104C40007531362053544D464C4153485F5265618F
:104C50006448616C66576F726428753332206661F0
:104C60006464722900766F69642064656C61795FA1
:104C70006D7328753136206E6D732900766F696407
:104C80002064656C61795F757328753332206E75A9
:104C900073290000B44C000800000020100200003E
:104CA0006C010008884D000810020020C02200009E
:104CB000C8010008132B4A1B0837041A300413F0EC
:104CC000491B08F7041A240C1A04041AEC0C1A0DD8
:104CD000081A14041A1D041AFC1051530101320A57
:104CE0001310121B205004C11201022D7F1A3D5CCB
:104CF0001A46041A4B041A43041A50041A3F0413A8
:104D0000E7361408284C1B08ED0813694B14089764
:104D1000051B0865101A61081A7C0813571C1B082C
:104D2000A028135F161B088B201399191B08FB1072
:104D30001A41081A0320135D281B08541013312749
:104D40001B08401013152A1B084A281A73081ADC7E
:104D5000181AB1081AE31013D1291B08A6081A5310
:104D6000101AC308134B311B0881201A89081A3303
:104D700010229C142093341B08B7041361351B08C0
:084D8000E5902A11E701D300C0
:0400000508000131BD
:00000001FF
