:020000040800F2
:10000000788000201D020008210200082302000859
:10001000250200082702000829020008000000004D
:100020000000000000000000000000002B0200089B
:100030002D020008000000002F0200083102000815
:100040009B1700083302000833020008212600082D
:100050003302000833020008E91C000833020008DC
:100060007115000899150008C11500083302000831
:10007000330200083302000833020008330200088C
:10008000330200083302000833020008330200087C
:100090003302000833020008330200085B16000830
:1000A000330200083302000833020008330200085C
:1000B000913B0008D51700085327000833020008B9
:1000C000330200083302000833020008330200083C
:1000D0003302000833020008EF0900083302000869
:1000E000A92900083302000833020008330200087F
:1000F000330200083302000833020008330200080C
:100100003302000833020008951A00083302000881
:100110003302000833020008291C000833020008DB
:1001200033020008330200083302000833020008DB
:1001300000F002F800F05CF80AA090E8000C82449D
:100140008344AAF10107DA4501D100F051F8AFF27A
:10015000090EBAE80F0013F0010F18BFFB1A43F0A5
:10016000010318479C780000BC7800000A444FF057
:10017000000C10F8013B13F0070408BF10F8014B06
:100180001D1108BF10F8015B641E05D010F8016B4B
:10019000641E01F8016BF9D113F0080F1EBF10F8AF
:1001A000014BAD1C0C1B09D16D1E58BF01F801CBD2
:1001B000FAD505E014F8016B01F8016B6D1EF9D555
:1001C0009142D6D37047000000230024002500266A
:1001D000103A28BF78C1FBD8520728BF30C148BFAA
:1001E0000B6070471FB506F030FF1FBD10B510BD86
:1001F00006F0ABF81146FFF7F5FF00F00AF905F03D
:1002000071FF03B4FFF7F2FF03BC06F08BF80000A8
:1002100030BF72B662B680F308887047084800475E
:10022000FEE7FEE7FEE7FEE7FEE7FEE7FEE7FEE7A6
:10023000FEE7FEE703480449044A054B7047000007
:10024000310100087840002078800020786000208C
:100250007860002070477CB505464FF47A7095FBB6
:10026000F0F086B2701C05EBC000D6490880002073
:1002700001902EE0BDF80400C0EB8010D24901EBE4
:100280000014D24800782070BDF804006080CD488A
:1002900000880090BDF80000A080BDF8040000EBCD
:1002A0004002C2EBC010CA4A02EBC0014FF47A729E
:1002B000A01D05F05BFF45F2AA50009004F57A708E
:1002C000BDF80010A4F8EE13BDF80400401C80B285
:1002D0000190BDF80400B042CCDBC6EB8610B5EB54
:1002E000001F2DD0BDF80400C0EB8010B64901EB13
:1002F0000014B64800882080BDF804006080B14832
:1003000000880090BDF80000A080BDF8040000EB5C
:100310004002C2EBC010AE4A02EBC001BDF80020A3
:10032000A01D05F023FF45F2AA500090601906EBCE
:100330004601C1EBC611A0EBC100BDF80010C180A1
:100340007CBD70B5A34D2D78022D61D10025A24E44
:100350003560A24EC6F890514FF00105A04E3560B1
:100360004FF0000535604FF001059B4E35609B4E08
:10037000C6F890514FF000003BE00025984E3560E4
:10038000984DAD68E9B24FF00105944EC6F8905112
:100390004FEA01214FF00005C6F89051914DAD682C
:1003A000EDB245EA01014FF00105C6F890514FEA60
:1003B000D124C1F3451201F01F03254664F3DF0584
:1003C0002C46154662F39F052A461D4663F3DF055A
:1003D0002B4600EB40057C4E745500EB400505F1C3
:1003E0000105725500EB400505F10205735500F15A
:1003F0000100B0F5963FC0D34FF480757A4E35605A
:100400000025744E3570794D2D786D1C774E357002
:1004100070BD002400250027092000F06DFAFFF7C9
:1004200019FF4FF4E131724800F085FC482000F0DC
:10043000FBF803F093FA02F06BFF352001F009F8A6
:100440006C48006820F470206A490860084600681B
:1004500040F4803008606848007802F0F8FF674890
:10046000007803F022F86648007803F05BF86548EE
:10047000007803F070F86448007803F085F863486A
:1004800000885249087008460078012803DB0846B6
:1004900000781F280EDD01204C49087000F073FD24
:1004A0005A4800F0B2FD49480178584800F070FE03
:1004B00000F06FFD41F61F41092001F021FA41F6DD
:1004C0001F4142F2107001F0BEFB01F0EBF84FF457
:1004D000A073F022AE210A2003F08BF800204C49D3
:1004E00008604FF002003B4908704FF00000494996
:1004F000087066E042480678424805783F4804782C
:10050000454880F8AC6080F8AD5080F8AE40414876
:10051000007840B100203F4908704048007810B989
:10052000002000F0F2FB3E48007820B100203C495A
:10053000087000F0BFFC384890F8A70030490870F8
:10054000354890F8A8002F490870334890F8A90062
:100550002A4908702A480078B04207D12948007813
:10056000A84203D108460078A04211D02448007860
:1005700002F0D8FF2348007802F0EDFF1F48007812
:1005800002F093FF1E4806781E4805781B48047841
:1005900024480078A8B14FF4805016490C31086007
:1005A000FFF7CFFE0A49084805F090FC87B23846AD
:1005B000FFF751FE00200F490C3108608814091D17
:1005C000086097E7380000200080026835000020AE
:1005D0000000006861000020B80124420080214230
:1005E000908121420010014014040140720000205B
:1005F00000512502040C0140300000203100002091
:1006000032000020330000203400002000F80308EE
:10061000BC012442640000202C0200205F00002066
:100620006E000020360000204FF0E021096921F023
:1006300004014FF0E0221161C21700EB5272D21098
:100640001F4B1A70194609784FF47A7251431D4AAC
:100650001180704701461A4A12784A434FF0E0234E
:100660005A6100229A6101221A6100BF4FF0E02214
:10067000106910F0010F02D010F4803FF6D0002274
:100680004FF0E0231A619A61704701460D4A1288C3
:100690004A434FF0E0235A6100229A6101221A6115
:1006A00000BF4FF0E022106910F0010F02D010F4EB
:1006B000803FF6D000224FF0E0231A619A61704724
:1006C0003A0000203C000020AD4A0A400243AD4BF6
:1006D0001A6070470146072323EA01021202A94B60
:1006E0001B1D18684FF6FF031840A74B1843104313
:1006F000A44B1B1D186070472DE9F04780468946C2
:1007000014461D462046E11704EB91714FEAA10AF9
:10071000E11704EB91718910A4EB8101CFB20420A1
:1007200000EBC700C7B22846FFF7D4FFC5F10400AD
:1007300008FA00F60F20284100EA0900064306F0F7
:100740000F06202C0CDA914800684FF0010101FAE5
:1007500004F140EA01004FF0E021C1F800010DE092
:100760008B480068A4F120014FF0010202FA01F267
:1007700040EA02004FF0E021C1F80401854850F83A
:100780002A0006FA07F140EA0100824941F82A00EE
:10079000BDE8F08770B504460B46CE1701EB9676A0
:1007A000B010CE1701EB9676B610A1EB8606B60612
:1007B000350E794B9B6943F00103774EB3614FEAE5
:1007C000B63353F820300F26AE40B343734E46F88D
:1007D0002030334653F8203004FA05F633436F4E89
:1007E00046F820306E4B1E6801238B401E436C4B35
:1007F0001E6012F0010F08D0694B0C331B680126F4
:100800008E403343664E0C36336012F0020F08D030
:10081000634B08331B6801268E403343604E083615
:10082000336070BD00B500205B490861C8601420CA
:10083000486100208861C8610846006840F00100F6
:1008400008600846406857490840534948600846D0
:10085000006855490840504908600846006820F47F
:10086000802008600846406820F4FE0048600020B0
:10087000886000214FF00060FFF726FF00BD10B533
:1008800040480830006840F004003E4908310860E4
:100890004148C06940F080503F49C86143484068C2
:1008A00040F48070414948600846006840F0040008
:1008B00008600846006840F002000860FFF7A8FCE6
:1008C00010BD3148001D2F49091D086070470146C1
:1008D0004906314A926942F001022F4B9A612F4A30
:1008E000083A526822F0E0622C4B083B5A601A46E4
:1008F00052680A435A60704770B504460025FFF7F6
:1009000091FF2548006840F480302349086000BF0B
:1009100021480068400CFBD04FF480601E494860BD
:10092000A01EC4B20846406840EA844048600846B9
:10093000406840F4803048601D48006840F0320054
:100940001B490860102000F013FB1348006840F0BA
:1009500080701149086000BF0F480068400EFBD04E
:100960000D48406840F002000B49486005E00A4825
:100970004068C0F3870505F00305022DF7D170BD6F
:1009800080FFFF1F08ED00E00000FA0500E100E035
:1009900004E100E000E400E0001002400800014033
:1009A000000401400000FFF8FFFFF6FE0070004069
:1009B000002002400020FE4908600220091D086056
:1009C000FC48008820F04000FA490880084600886A
:1009D00020F0200008800020F7490860F7490860EF
:1009E000F7490880F7490880F7490870704700B553
:1009F000F048008810F0200F18D0EE48008820F052
:100A00002000EC490880EE48008840280EDA081DD6
:100A10000088EE490968EA4A12888854E848008844
:100A2000401CE74908800A20E9490870E14800882D
:100A300010F0400F2FD0DF48008820F04000DD4943
:100A40000880DD480068DD49096888420DD2E14828
:100A50000068D9490968405CD649091D0880D64814
:100A60000068401CD449086015E0DB480078DB4989
:100A7000097888420ADC0A20D94908700020CE494A
:100A80000860CE490860CF49088004E0FFF792FF74
:100A90000120D449087000BD10B50346002002E0D3
:100AA0000C5C1C54401C9042FAD310BD70B5034638
:100AB0000C46FF25FF2600220AE0985C80EA05012B
:100AC000C948405C80EA0605C848465C501CC2B272
:100AD000A242F2DB46EA052070BDF0B505460C46A1
:100AE000A01EC1B22846FFF7E1FF0646601E295C42
:100AF000A01E285C41EA0027BE4201D10120F0BDC2
:100B00000020FCE70020B149096848700220A8498C
:100B1000086044F24020AB4908800020A6490860E4
:100B2000A448008820F04000A2490880A948006835
:100B3000A1490968405C9F49091D08809E480068DA
:100B4000401C9D490860704770B5A948C078A84905
:100B5000897800EB012085B2A54800789D49096895
:100B60000870A34840789B4909684870A0484078BD
:100B7000032811D19E4840794400964909688C7039
:100B80009C484119224693480068C01CFFF784FF27
:100B9000601D8A490860A0E095484078052827D163
:100BA0009348C0789449087000F0EDF9934800F03C
:100BB0002CFA91480178914800F0EAFA00F0E9F93E
:100BC0008D480078834909680870894840788149D0
:100BD00009684870864880787E490968887084482A
:100BE000C0787C490968C87006207449086074E0C0
:100BF0007F484078062811D17E49481902227C4955
:100C0000091DFFF749FF0822704801687148006814
:100C1000FFF742FF0820694908605EE074484078A9
:100C2000102813D16948006884797249481922460E
:100C30006F49C91DFFF730FF06226D4965480068FE
:100C4000FFF72AFF08205D49086046E068484078C1
:100C5000202842D1002063490870694800884FF479
:100C60007C7190FBF1F05D490870654800884FF495
:100C70007C7190FBF1F201FB12006249088008468A
:100C8000008820B155480078401C54490870012064
:100C900051490870084600785049097888420BDAB3
:100CA0004FF47C7258494B480068FFF7F5FE4FF44B
:100CB0007C70424908600AE052480288524945481F
:100CC0000068FFF7E9FE4F4800883C490860424849
:100CD0000078401C4049087070BD38480068801E8C
:100CE000C1B23C480068FFF7E1FE044633480068A3
:100CF000401E384A12681454211230480068801E81
:100D0000344A1268115400BFE6E770B505463F4803
:100D10000088C1B23648FFF7E0FE044614B9FFF779
:100D200049FE70BDFFF710FF012027490870FFF74B
:100D3000E9FE00BFF5E72DE9F05F07460D46280103
:100D400006F0A8F88146384606F0A4F882464946DF
:100D500005F08AFF0646304606F064F884B2204665
:100D600006F098F88346314606F07BF982464FF04C
:100D7000834106F0A3F8814606F054F81FFA80F884
:100D80002005040C04EB080084B22148806940F07F
:100D900008001F4988610846806940F004008861A6
:100DA0000846C06940F40030C8611A48006833E062
:100DB000100C014000440040580000205400002066
:100DC000500000206A0000205F0000204400002046
:100DD00040000020480000204D0000204C00002072
:100DE0005E00002036000020627100086272000878
:100DF0006C1200202C0200203500002000F80308AF
:100E0000380000204E000020008002685C000020B6
:100E1000001002400008014020F47F403F49086074
:100E20000846006840F40B4008603D48006820F028
:100E3000F0003B4908600846006840F01000086078
:100E4000081D006820F47040091D0860084600680D
:100E500040F4805008603348006940F40030314964
:100E600008610846006920F4003008612E480480BB
:100E7000001D008842F20C0108432B49091D08801F
:100E80000846008840F0200008800846008840F0AE
:100E90004000088024480838008820F0400022499B
:100EA000083908800223262203210846FFF724FC84
:100EB000BDE8F09F00B51D4800781D4909788842BB
:100EC00012DA1A480078401EC0EB8010194A02EB73
:100ED00000114FF47C7218480068FFF7DDFD4FF4F5
:100EE0007C701649086011E010480078401EC0EB85
:100EF0008010104A02EB0011114802880E48006869
:100F0000FFF7CAFD0E4800880C49086007480078C2
:100F1000401C06490870FFF7F5FD00BD00080140C0
:100F2000000C014000100240084400404D00002029
:100F30004C0000200080026848000020540000207F
:100F40004E000020FA49096801F03801F84A1160A2
:100F500011460968014311607047F549096821F09D
:100F60000801F34A11601146096801431160704796
:100F7000EF49096821F01001ED4A11601146096836
:100F8000014311607047EB48E9494860EA4848600E
:100F90007047E748006940F08000E5490861704704
:100FA0000420E349C96801F00101012901D10120B0
:100FB0000EE0DF49C96811F0040F01D0022007E0FC
:100FC000DB49C96811F0100F01D0032000E00420B4
:100FD00070470020FF2000E0401E0028FCD1704731
:100FE00070B504460425FFF7DBFF054605E0FFF773
:100FF000F0FFFFF7D5FF0546641E012D01D1002C3F
:10100000F5D104B90525284670BD70B50546042400
:1010100040F6FF70FFF7E4FF0446042C19D1C448E2
:10102000006940F00200C249086108464561006954
:1010300040F04000086140F6FF70FFF7D1FF044622
:10104000012C06D0BA48006941F6FD710840B84944
:101050000861204670BD10B5042440F6FF70FFF70C
:10106000BFFF0446042C18D1B148006940F00400C9
:10107000AF4908610846006940F04000086140F649
:10108000FF70FFF7ADFF0446012C06D0A8480069A9
:1010900041F6FB710840A6490861204610BD10B515
:1010A000042440F6FF70FFF79BFF0446042C3BD15D
:1010B000A0489F498860A04888600846006940F0C1
:1010C000200008610846006940F04000086140F6D1
:1010D000FF70FFF785FF0446042C1CD1944800697B
:1010E00041F6DF710840924908610846006940F006
:1010F00010000861A520914908800F20FFF770FFBC
:101100000446012C10D08A48006941F6EF7108406E
:101110008749086108E0012C06D08548006941F63E
:10112000EF71084082490861204610BD70B5054640
:101130000E4604240F20FFF753FF0446042C25D14C
:101140007B48006940F00100794908612E800F203A
:10115000FFF746FF0446042C0FD1300C68800F20A7
:10116000FFF73EFF0446012C10D07148006941F69C
:10117000FE7108406E49086108E0012C06D06C48F9
:10118000006941F6FE71084069490861204670BD5A
:1011900070B505460E4604240F20FFF721FF0446D4
:1011A000042C13D16248006940F0010060490861D5
:1011B0002E800F20FFF714FF0446012C06D05C4858
:1011C000006941F6FE71084059490861204670BD2A
:1011D00070B505460E4604240F20FFF701FF0446B4
:1011E000042C17D1534852498860534888600846F8
:1011F000006940F0100008612E800F20FFF7F0FE1C
:101200000446012C06D04A48006941F6EF710840B7
:1012100047490861204670BD2DE9F04704464FF666
:10122000FF763746B046B1460425E443E6B2C4F340
:101230000727C4F307484FEA14690F20FFF7D0FED1
:101240000546042D40D13B48394988603A488860BA
:101250000846006940F010000861FF2E06D03748AC
:10126000083006800F20FFF7BBFE0546042D08D18D
:10127000FF2F06D031480A3007800F20FFF7B0FE5D
:101280000546042D0AD1B8F1FF0F07D02B480C30CA
:10129000A0F800800F20FFF7A3FE0546042D0AD119
:1012A000B9F1FF0F07D025480E30A0F800900F20AD
:1012B000FFF796FE0546012D06D01D48006941F650
:1012C000EF7108401A4908612846BDE8F08770B5FB
:1012D0000546042440F6FF70FFF782FE0446042C06
:1012E00049D114481249886013488860084600694B
:1012F00040F0200008610846006940F040000861A5
:1013000040F6FF70FFF76CFE0446042C2AD1084813
:10131000006941F6DF710840054908610846006927
:1013200040F0100008615DB10020044908800AE027
:101330000020024023016745AB89EFCD00F8FF1F75
:10134000A5204549088040F6FF70FFF749FE044696
:10135000012C10D04148006941F6EF7108403F4927
:10136000086108E0012C06D03C48006941F6DF71B5
:1013700008403A490861204670BD2DE9F041074612
:101380000D4616460424364834498860354888603E
:101390000F20FFF725FE0446042C1AD12F480069C0
:1013A00040F010002D49086147EA0500304340F045
:1013B000F8002949891C08800F20FFF711FE044618
:1013C000012C06D02548006941F6EF7108402349F9
:1013D00008612046BDE8F0812048C0698008704758
:1013E0001E48006A704700201C49C96911F0020FAD
:1013F00001D0012000E00020704700201749096853
:1014000011F0200F01D0012000E00020704729B129
:10141000124A12690243114B1A6104E00F4A126921
:1014200082430E4B1A61704701460020012908D102
:101430000A4AD26912F0010F01D0012008E0002011
:1014400006E0064AD2680A4201D0012000E00020EE
:1014500070470249C860704700F8FF1F0020024033
:1014600023016745AB89EFCD3748806940F0040020
:10147000354988610846806940F0400088613348FA
:10148000006820F00F00314908600846006840F00D
:10149000080008602E4800682E4908402C49086062
:1014A000084600682C4908432949086028480C3040
:1014B000006840F01C0026490C310860704710B5E8
:1014C000044614B10120254908702448007838B337
:1014D0002348006848B12348006830B122480068BA
:1014E00018B12248006801281AD10A20FFF7CDF868
:1014F00000201A4908701A48006808B9012010BD78
:101500001848006808B90220F9E71748006808B9C8
:101510000320F4E715480068012813D10420EEE702
:101520000F48006801280DD10E480068012809D134
:101530000D480068012805D10C48006810B9012049
:10154000064908700020DAE7001002400008014058
:1015500000180140FF00F0FF008808006000002034
:10156000100123420C0123420801234200012142C1
:1015700010B50A20FFF789F85148006838B951487A
:10158000006808B9012000E000204E4908604FF0D3
:1015900004004D49086010BD10B50A20FFF775F82A
:1015A0004A48006838B94A48006808B9012000E094
:1015B0000020474908604FF008004349086010BD0B
:1015C00010B50A20FFF761F84248006880B93D482D
:1015D000006808B9012000E000203A4908603E4850
:1015E000D0F8940108B9012000E0002038490860D3
:1015F0004FF010003449086010BD10B5FFF734FFFC
:10160000022200210846FFF7C5F80122022104202A
:10161000FFF7C0F8012203210420FFF7BBF80122E5
:1016200004210846FFF7B6F80223062203211846D4
:10163000FFF762F80223082219461846FFF75CF804
:101640000223092201211846FFF756F802230A2235
:1016500000211846FFF750F810BD1B48006810F431
:10166000807F1AD01D480078022816DA1B480078BF
:1016700050B900201A4908604FF001001949C1F81B
:1016800098011949086002E00020174908601348D2
:10169000007800F10100114908704FF480700A4988
:1016A0000860704710B5022208210020FFF772F889
:1016B0000223172200210846FFF71EF810BD000084
:1016C0000801234294812142140401400C01234269
:1016D00094012342100123420000234261000020B4
:1016E00098812242008022428C81214245F255524B
:1016F000334B1A601A46506091604AF6AA221A606B
:101700004CF6CC421A6070474AF6AA202C49086071
:10171000704770B506460C4615462A48C06940F425
:1017200000602849C8612848007830402649087080
:101730002648006840EAC510244908600846006849
:101740004FF6807108402149086008460068204330
:101750000860081F00681C49097808431B49091FD5
:1017600008600846006840F08000086002230022FC
:1017700003211846FEF7C0FF00201449091D086028
:10178000081F006840F40070091F086070BD00F079
:101790007F010E4A121F1160704700B50A48007899
:1017A000FFF7F5FF00200949091D08600848006897
:1017B00008B9012000E000200549086000BD0000D4
:1017C000003000400010024062000020042C004065
:1017D0009401234210B5FD48008810F0010F7AD023
:1017E000FB480078401CFA490870084600780A282F
:1017F00006DB00200870F7480078401CF5490870A7
:10180000F44800780A2807DB0020F2490870F24803
:101810000078401CF0490870EF4800780A2814DB73
:101820000020ED490870ED48006810F4006F07D003
:101830000020EA49091D0860C814091D086004E079
:101840004FF40060E549091D0860E548008800285C
:1018500009DDE3480088401EE14908800846008809
:1018600008B9FFF7A7F8DF48007800280ADDDD484F
:101870000078401EDB4908700846007810B9012046
:10188000D9490880D9480088002809DDD748008850
:10189000401ED64908800846008808B9FFF78AF834
:1018A000D3480078002824DDD1480078401ED04974
:1018B00008700846007870B9CE480078CE4909789B
:1018C000884213D10120CD490870CD480078CD4918
:1018D0000880002406E00CE0C648005DCA490855AF
:1018E000601C84B2C74800888442F5DB0020C449EC
:1018F0000870B648008820F00100B449088010BD87
:1019000070B505460C46C148C06940F00200BF49A9
:10191000C861AE481C300580001F0480AB48001F22
:10192000008840F00100A949091F0880A748103825
:10193000008840F00100A5491039088002231D22CB
:1019400003210120FEF7D8FE70BDB04AD26942F0F3
:101950000202AE4BDA611A46926942F008029A61BD
:101960009E4A0C3A126822F470029C4B0C3B1A609F
:101970001A46126842F430021A60A44A926942F090
:101980000102A24B9A61A24A526822F44062A04B23
:101990005A601A46526842F400625A608B4A1C32FE
:1019A0001080121F1180894A0832128842F4E042E6
:1019B000864B08331A801A46128842F400621A8055
:1019C000824A1032128842F01002804B10331A8083
:1019D000DA137E4B103B1A801A46128842F001023D
:1019E0001A80704770B504460D468848C06940F0BB
:1019F00008008649C8610846806940F00400886193
:101A00008448006820F00F0082490860084600689A
:101A100040F0080008607F480C3000687D490C31B8
:101A200008607D480480001F05807B4814380088CA
:101A300040F0010078491439088008460088088081
:101A400008460088088074480C38008872490C39B0
:101A500008800846008840F0010008806E48203861
:101A6000008840F002006C49203908800846008850
:101A700040F00100088068482C38008840F00100E0
:101A800065492C3908800223322200211846FEF7CE
:101A900033FE70BD60491C3908886049097811F02F
:101AA000800F4ED110F0010F1AD05C49097811F067
:101AB000400F15D05949097801F03F013F290AD15B
:101AC0005649097841F08001544A11704FF6FF7170
:101AD000534A118004E051490978491C4F4A11705A
:101AE00010F0020F2DD04D49097811F0400F13D09E
:101AF0004A49097841F08001484A11704649083145
:101B00000988474A118044490C39098821F00201AB
:101B1000414A0C3A118014E00021404A1170404AB9
:101B200011803E49097841F040013C4A1170002182
:101B3000394A083A1180111F098841F00201121F29
:101B400011800021344A1C3A118070472F4AD26913
:101B500042F004022D4BDA611A46926942F0080203
:101B60009A611E4A0C3A126822F07F421B4B0C3BD2
:101B70001A601A46126842F096421A60294A10808A
:101B8000121F1180274A143A128842F07002254B26
:101B9000143B1A801A46128842F008021A80214A21
:101BA0000C3A128842F002021E4B0C3B1A801A4675
:101BB000128842F001021A8080221A4B2C3B1A80B4
:101BC0001A46128842F001021A8070471004004041
:101BD0006500002066000020670000200C0C01401A
:101BE0006A0000205E0000206E0000206C000020D3
:101BF000400000202C12002035000020640000204E
:101C0000500000205C0000206C12002000100240F8
:101C100000000140000801402C0C00406900002039
:101C2000700000202C0800401548008A10F0010FB9
:101C300002D00020134908701148008A20F00100EA
:101C40000F490882704770B505460C460E48C069BA
:101C500040F010000C49C8610948858504858089D9
:101C600040F00100064988810846008840F00100E4
:101C700008800223362203210120FEF73DFD70BDBE
:101C800000100040720000200010024010B52F48E4
:101C9000C06840F4FE702D49C860FEF7F0FD10BD2D
:101CA00070B5002500240020294908601BE0294860
:101CB000006818B1681CC5B2002409E0601CC4B2F9
:101CC000032C05DD0120224908604FF0000070BDA3
:101CD0001E20FEF7DAFC642D05DB00201C4908609D
:101CE0004FF00100F3E7E2E710B501201A49086060
:101CF000FFF7D6FF08B1FFF7C9FF10BD10B51348B5
:101D0000806940F00400114988610846806940F00C
:101D1000010088611148006820F00F000F49086039
:101D20000846006840F008000860022200210846CA
:101D3000FEF730FDFFF7B4FF08B9FEF7A0FD022360
:101D4000062219461846FEF7D7FC10BD00100240C7
:101D50009481214200012142140401400008014005
:101D60002C48806940F004002A4988610846C0690F
:101D700040F00050C8612848006820F470202649CF
:101D800008600846006808602448006840F00100C8
:101D9000224908600846006840F0020008600846D2
:101DA0000068086008460068086008460068086027
:101DB0000846006808600846006808600020174967
:101DC0000831086070472DE9F0478046404605F02D
:101DD00061F881461249484604F046FF81464FF0BB
:101DE0008B41484605F06AF8824604F0AFFE06468D
:101DF0004FF066320B4B04F0E3FB044604F006FBA5
:101E00008146484605F00EF8044908310860BDE8EF
:101E1000F0870000001002400008014000740040FC
:101E200000007A4466660A409748806940F00800DE
:101E3000954988619548006820F47F40934908607F
:101E40000846006840F44C5008609048083000682C
:101E500040F440608D4908310860704710B58B48E8
:101E6000006820F47040894908600846006840F422
:101E7000405008600120864908608649C1F8A801E1
:101E80004FF00400FEF7E6FB0020814908604FF0A8
:101E90000400FEF7DFFB00207E49C1F8A80110BD59
:101EA00010B57A48006820F4704078490860084608
:101EB000006840F440500860002077490860754988
:101EC000C1F8AC014FF00400FEF7C4FB01207249D9
:101ED00008607049C1F8AC014FF00400FEF7BAFB8E
:101EE00010BD10B500246948006820F470406749AF
:101EF00008600846006840F400400860012064491A
:101F00000860FEF7A7FB01206249C1F8A801FEF7AF
:101F1000A1FB07E0601CC4B2FA2C03DDFFF7C0FF91
:101F2000012010BD5D4800680028F3D15A490860BF
:101F300000BFF6E710B50020574908605348006815
:101F400020F47040514908600846006840F4405051
:101F500008604FF000004F49C1F8AC014FF002009B
:101F6000FEF778FB01204C4908604FF00200FEF7B5
:101F700071FB00204749C1F8A80110BD10B5002031
:101F8000454908604148006820F470403F490860B6
:101F90000846006840F4405008604FF001003D4999
:101FA000C1F8AC014FF00200FEF754FB01203A49A2
:101FB00008604FF00200FEF74DFB00203549C1F8E4
:101FC000A80110BD70B504463048006820F4704088
:101FD0002E4908600846006840F440500860002020
:101FE0002D49086005461AE0E009294908604FEAD2
:101FF00044604FEA10644FF00200FEF72BFB012013
:102000002449C1F8A8010220FEF724FB0020224940
:1020100008604FF00200FEF71DFB681CC5B2082DDA
:10202000E2DB70BD70B5054600241848006820F456
:102030007040164908600846006840F40040086097
:10204000002616E00020144908604FF00200FEF759
:1020500001FB01200F49C1F8A8016006040E0F48DA
:10206000006808B1601CC4B20120FEF7F3FA701CCE
:10207000C6B2082EE6DB15B9FFF780FF01E0FFF7D7
:1020800059FF204670BD000000100240040C0140C2
:10209000AC81214200802142A88121422C81214231
:1020A00010B5FFF7C1FE10BD70B504460026FFF75E
:1020B000D5FE2546E11704EB11610912A02202EBBF
:1020C0004101C8B2FFF77EFFFFF70BFFE11704EBFA
:1020D00011610912A4EB0121C8B2FFF773FFFFF7EA
:1020E00000FFFFF7BBFEA120FFF76CFFFFF7F9FE33
:1020F0000020FFF797FF0646FFF7D2FE304670BD7F
:1021000070B504460E46FFF7A9FE2546E11704EB1D
:1021100011610912A02202EB4101C8B2FFF752FF80
:10212000FFF7DFFEE11704EB11610912A4EB0121B7
:10213000C8B2FFF747FFFFF7D4FE3046FFF742FF74
:10214000FFF7CFFEFFF7ACFE0A20FEF79EFA70BD48
:102150002DE9F04105460E461746002409E0E2004D
:1021600026FA02F2D1B22A1990B2FFF7C9FF601C19
:10217000C4B2BC42F3DBBDE8F0812DE9F041074673
:102180000C460026002509E036023919491B491E74
:1021900088B2FFF789FF0644681CC5B2A542F3DB8D
:1021A0003046BDE8F08110B5FF20FFF77DFF044603
:1021B000552C01D1002010BD5521FF20FFF7A0FFB5
:1021C000FF20FFF771FF0446552C01D10020F2E7F4
:1021D0000120F0E770B506460C46154608E030468B
:1021E000721C96B2FFF760FF04F8010B681E85B2FF
:1021F000002DF4D170BD70B505460C46164606E0BC
:1022000021782846FFF77CFF681C85B2641C3000EB
:10221000A6F101018EB2F3D170BD0000F0B5034606
:102220000C461546642093FBF0F0C6B2642093FB85
:10223000F0F700FB1730C1B2132E02DD01F164008C
:10224000C1B20846CF1701EB977701EBA702072031
:1022500092FBF0F700FB172082B25719601EDFF8DF
:1022600010C41CF80000384482B2CF1701EB9777F6
:10227000BF10B1EB870703D1032C01DA501E82B2E5
:10228000072092FBF0F700FB1720C0B2F0BD01461B
:10229000CA1701EB92729210B1EB820212D1642044
:1022A00091FBF0F200FB121050B94FF4C87091FB93
:1022B000F0F200FB121008B9012070470020FCE783
:1022C0000120FAE70020F8E770B500260024002579
:1022D000E84806883604001D00880644E648B6FB38
:1022E000F0F4E6480088A0423CD0E4490C8040F27B
:1022F000B27510E02846FFF7CAFF40B1B4F5B77FCA
:1023000002D3A4F5B77404E0681C85B206E0A4F219
:102310006D14681C85B2B4F5B67FEBD800BFD84801
:102320008580002516E0D6498888FFF7B0FF30B1D8
:10233000012D04D11D2C01D31D3C09E00CE0D14836
:10234000405DA04203D8CF48405D241A00E003E07E
:10235000681C85B21C2CE6D200BF681CC849887175
:10236000601CC871C448B6FBF0F100FB11644FF467
:102370006160B4FBF0F0C24908704FF46160B4FBD7
:10238000F0F100FB11403C21B0FBF1F0BC4948707A
:102390004FF46160B4FBF0F100FB11403C21B0FB55
:1023A000F1F201FB1200B64988700B46DA7999798F
:1023B0009888FFF733FFB2490872002070BD2DE9FD
:1023C000F04F06460F4690469946DDE909AB0024DA
:1023D00040F2B270864203DB40F63300864202DDF3
:1023E0000120BDE8F08F40F2B2750AE02846FFF701
:1023F0004EFF10B1A448044401E0A4480444681C02
:1024000085B2B542F2DB781EC7B2002510E09D48C8
:10241000405D40F2A321484304EBC0143046FFF76F
:1024200036FF18B1012D01D193480444681C85B2D0
:10243000BD42ECDBA8F1010040F2A321484304EBCC
:10244000C014C9EB4910C0EB092004EB0014CAEB1F
:102450000A1004EB80045C448D48C06940F0805051
:102460008B49C8610846C06940F00060C86189486E
:10247000006840F48070874908607E4814380088FE
:1024800040F010007B49143908807A49091D0C80FE
:10249000200C091F088077481438008820F01000AD
:1024A00074491439088000BF72481438008810F04D
:1024B000200FF9D0FFF708FF002092E71CB5002499
:1024C00075480088A0F5A04150397DD07048C0699A
:1024D00040F080506E49C8610846C06940F0006015
:1024E000C8616C48006840F480706A4908606848B8
:1024F000006A40F48030664908620846006A20F4A9
:10250000803008620846006A40F00100086204E07A
:10251000601CC4B20A20FEF7B8F85D48006A10F0EB
:10252000020F01D1FA2CF3DBFA2C01DB01201CBDD8
:102530005748006A40F48070554908620846006AAE
:1025400040F40040086200BF4A481438008810F088
:10255000200FF9D000BF47481438008810F0080F4A
:10256000F9D044481838008840F001004149183932
:10257000088000BF3F481438008810F0200FF9D0C1
:102580003C481438008840F010003A49143908805B
:102590000020091D088047F6FF70091D08803720BC
:1025A00010210D230722CDE90010092140F2DC7033
:1025B000FFF705FF2F481438008820F010002D4940
:1025C0001439088000BF00E00AE02A481438008867
:1025D00010F0200FF7D045F250002F49088015E089
:1025E00000BF24481438008810F0080FF9D02148A3
:1025F0001838008840F001001E491839088000BFD3
:102600001C481438008810F0200FF9D00223032250
:1026100000210846FEF770F8FFF756FE002086E717
:1026200000B514481438008810F0010F01D0FFF7EE
:102630004BFE10481438008810F0020F07D00D48E8
:102640001438008820F002000A491439088009482B
:102650001438008840F6FA71084006491439088099
:1026600000BF04481438008810F0200FF9D000BDD6
:102670006273000818280040805101007400002097
:10268000AC1600206E7300080085E2018033E10182
:102690000010024000700040046C004010B5A548D6
:1026A000C06940F00400A349C8610846806940F051
:1026B00008008861A048006820F0F0009E4908608A
:1026C0000846006840F0800008609B4808300068B9
:1026D00040F4007098490831086042F21070974940
:1026E00008804720091F088094481038008840F46B
:1026F00080709249103908800846008840F44050A4
:102700000880084600880880081D0088091D088088
:102710000846008840F480500880884820380088A7
:1027200040F010008549203908800846008840F0B4
:102730000100088081482C38008840F001007F4962
:102740002C39088002231E2203210120FDF7D4FF2B
:1027500010BD7A491C39088810F0010F2BD0784938
:10276000097811F0800F26D07549097821F0100101
:10277000734A11701146097811F00F0F04D11146F8
:10278000097841F0400111706D49097801F00F019D
:102790000E2905DA6A490978491C694A11700AE06C
:1027A0006749097821F08001654A1170114609785E
:1027B00001F0F001117010F0100F13D06149096899
:1027C00089B15E490C39098841F400515B4A0C3AE1
:1027D00011800021121D11805949097841F0100122
:1027E000574A117071E0554914310988564A1180D1
:1027F00052490C39098821F40051504A0C3A118091
:102800004F49097811F0100F59D04D49097811F04E
:10281000800F3FD04C490988B1F5967F0DDD4A49BC
:102820000988B1F5487F08DA484909684900474AEC
:10283000116011460968116041E043490988B1F50A
:10284000AF6F0FDD40490988B1F5E16F0ADA3F4902
:10285000096849003D4A11601146096841F00101CB
:1028600011602CE03849098840F69802914226DD33
:102870003549098840F62822914220DA34490978FE
:10288000491C334A11702E49097801F0F0012C4A95
:10289000117014E02C49098841F2680291420EDD62
:1028A0002949098841F25C22914208DA24490978D1
:1028B00041F08001224A11700021254A11702049FF
:1028C000097821F010011E4A117000211B4A1C3AA0
:1028D0001180704710B50020194B1B7813F0400F82
:1028E00026D01A4B1B68190E184B1B68C3F30742FE
:1028F000D343DBB299420CD159B9144B1B68C3F3D3
:102900000721124B1B68DAB2D343DBB2994200D1E4
:10291000084620B10A4B1B7813F0800F08D1084BF2
:102920001B7823F04003064C23700023084C2370CF
:1029300010BD000000100240040C01402C080040B3
:102940007800002024812142820000207C000020A9
:10295000800000204FF40061FE4A116040B1FD4943
:102960001439096841F40061FA4A143A116007E029
:10297000F8491439096821F40061F64A143A1160E3
:10298000704700B50020FFF7E5FFF348406820F4EA
:102990007040F14948600846406840F44050486043
:1029A0000020EE49086000BD00B5EA48006810F458
:1029B000006F7DD04FF40060E6490860E848007879
:1029C00020B90020E7490870E7490870E44800781A
:1029D000401CE349087008460078012816DD0846C7
:1029E00000780A2812DAE04800784010DE490870C2
:1029F000DE480068B8B10846007840F080000870F2
:102A0000D8480078401CD74908700CE0D4480078BA
:102A10000A2808D1D548006828B1D248007840F08B
:102A20008000D0490870CE4800780B2840D1CD48AE
:102A3000007800F07F00CA4908700A46117801EB5F
:102A4000D1725210B1EB420204D1C64A127812F090
:102A5000800F0DD1C24A107800EBD0725210A0EB5B
:102A60004202012A59D1BF4A127812F0800F54D184
:102A7000BF48007800F00F00B9490870BA480078E4
:102A8000BC49B74A12788854B54800780F2804DA50
:102A9000B7480078401CB6490870B548007800F087
:102AA0003000AF4908700846007830B1102800E0C7
:102AB00041E00BD020282FD109E0FFF762FFAC489E
:102AC000007840F08000AA49087025E024E0AA4878
:102AD000007870B9A648007800F00F0003281AD1DA
:102AE000A348007840F08000A1490870FFF749FF33
:102AF00011E0A148007803280DD19D48007800F02E
:102B00000F00042807D19A48007840F080009849C7
:102B10000870FFF736FF00BF0AE09548007840F0E4
:102B20004000934908700846007800F0F0000870F3
:102B300000208B49087000BD00B58748406820F42C
:102B40007040854948600846406840F4004048604D
:102B50000846406820F4706048600846406840F4C9
:102B60000060486001207D4908608449C1F8A801DF
:102B7000FFF7F0FE00BD70B5044600250CB901203A
:102B800000E00020044609E00120FDF763FD681C19
:102B900085B2B5F57A5F01DD012070BD7848006827
:102BA000A042F1D00020F8E770B50024002520E015
:102BB000601C84B20A20FDF74DFD6D48007810F0CE
:102BC000800F0CD06A48007800F00E0069490D5C57
:102BD0006748007800F07000654908700AE041F22B
:102BE0007C50844204DC6248007810F0400F00D032
:102BF00000E0DDE700BFFFF79FFF284670BD70B51E
:102C0000054600240020FFF7A5FE5348406820F445
:102C10007040514948600846406840F44050486060
:102C20000846406820F4706048600846406840F4F8
:102C3000407048600020494908604FF07800FDF777
:102C400009FD00204D49C1F8A8010A20FDF702FD49
:102C50004148406820F470403F4948600846406859
:102C600040F40040486001203C4908604FF00000FB
:102C7000FFF781FF00284FD1002617E015F0010F64
:102C800006D001203F49086004F10100C4B202E00F
:102C900000203C4908604FEA65054FF00100FFF74E
:102CA0006AFF0020FFF767FF701CC6B2082EE5DB45
:102CB000204604EBD0714910B4EB410103D101204F
:102CC0003049086002E000202E4908604FF0010002
:102CD000FFF751FF0020FFF74EFF01202949086050
:102CE000FFF749FF1C48406820F470601A494860AB
:102CF0000846406840F4006048600020FFF73BFF52
:102D00001E48D0F8280118B90120FFF734FF07E06A
:102D1000FFF712FF012070BDFFF70EFF0220FAE758
:102D2000FFF70AFF0020F6E710B51748806940F06A
:102D30001000154988610848406820F47F40064922
:102D400048600846406840F4084048600846C0684B
:102D50001CE000001404014000100140AC012242BC
:102D600085000020870000208600002028012242E4
:102D700084000020B61600208800002000002242B7
:102D80002C012242A80122420010024040F440607F
:102D9000C86001220B210220FDF7FCFC022328223F
:102DA00019460120FDF7A8FC10BD000089488A499A
:102DB00048608A48486070478748006940F0800052
:102DC0008549086170478448C16811F0010F01D03E
:102DD0000120704711F0040F01D00220F9E711F033
:102DE000100F01D00320F4E70020F2E770B504468D
:102DF00000BFFFF7E8FF0546012D00D006E00120E7
:102E0000FDF728FC601E84B2002CF2D100BF04B98B
:102E1000FF25284670BD70B50546002445F6FF70B5
:102E2000FFF7E4FF0446C4B96B48006940F00200B4
:102E30006949086108464561006940F04000086141
:102E400045F6FF70FFF7D2FF0446012C05D062481B
:102E5000006920F0020060490861204670BD70B52D
:102E600005460E46FF20FFF7C1FF044694B95A48B5
:102E7000006940F00100584908612E80FF20FFF7EB
:102E8000B5FF0446012C05D05348006920F001002D
:102E900051490861204670BD0146088870472DE9F8
:102EA000F04105460E461746002407E036F8141098
:102EB0002846FFF7D4FFAD1C601C84B2BC42F5DB92
:102EC000BDE8F08130B503460C461546002207E008
:102ED0001846FFF7E1FF24F812009B1C501C82B239
:102EE000AA42F5DB30BD2DE9F05F80468A461746E1
:102EF000B8F1006F02D33A48804501D3BDE8F09F96
:102F0000FFF754FFA8F1006B4FEADB25CBF349092B
:102F1000C9F58064A74200DC3C464DE04FF00061FB
:102F200001EBC5204A142F49FFF7CCFF00260BE028
:102F300009EB06002B4931F81000A0F57F41FF395D
:102F400000D003E0701C86B2A642F1DB00BFA642AF
:102F50001BDA4FF0006101EBC520FFF75CFF002694
:102F600008E03AF8160006EB09011E4A22F81100A3
:102F7000701C86B2A642F4DB4FF0006101EBC52065
:102F80004A141849FFF78BFF04E022465146404699
:102F9000FFF785FFA74200D10FE06D1C4FF000093D
:102FA0000AEB440AA044381B87B2B7F5806F02DDF4
:102FB0004FF4806400E03C46B0E700BFFFF7FCFE42
:102FC00000BF9BE713B50446012201A92046FFF785
:102FD0008AFF1CBD2301674500200240AB89EFCD6D
:102FE00000000808C616002070B505460C46FEF71E
:102FF00035FF2220FEF7E6FFFEF773FF2846FEF7B7
:10300000E1FFFEF76EFF2012FEF7DCFFFEF769FF1F
:10301000E0B2FEF7D7FFFEF764FFFEF741FF70BD99
:1030200070B50546FEF71AFF2220FEF7CBFFFEF72C
:1030300058FF2846FEF7C6FFFEF753FFFEF70EFFC8
:103040002320FEF7BFFFFEF74CFF0120FEF7EAFF4B
:10305000044624020020FEF7E5FF0443FEF720FFAC
:10306000204670BD10B5FEF7DFFE0020FFF7D8FF49
:103070000446A4F5B040053837D102210846FFF7D1
:10308000B3FF3220FDF701FB4CF201010220FFF7F4
:10309000ABFF4FF41670FDF7F8FA48F64F01052024
:1030A000FFF7A2FF4FF4F0410720FFF79DFF082133
:1030B0001320FFF799FF4FF4A1511520FFF794FF5C
:1030C0004FF440411620FFF78FFF43F226111C20DA
:1030D000FFF78AFF49F624412220FFF785FF4FF2D0
:1030E00060614720FFF780FF01E0012010BD002054
:1030F000FCE710B54020FFF793FF04464FF6F07051
:10310000044021464020FFF76FFF10BD10B540205E
:10311000FFF786FF04464FF6F070044044F00104C8
:1031200021464020FFF760FF10BD10B50B20FFF7D0
:1031300077FF0446601210BD70B505460520FFF705
:103140006FFF04464FF6F070044005F00F00044393
:1031500021460520FFF748FF70BD70B505460220E7
:10316000FFF75EFF044615B144F4804401E024F407
:10317000804421460220FFF737FF70BD70B5054639
:103180000520FFF74DFF044648F2FF00044044EAE3
:10319000052421460520FFF727FF70BD70B50546C1
:1031A0004220FFF73DFF04464FF6C07004402C4319
:1031B00021464220FFF718FF70BD70B5054642203A
:1031C000FFF72EFF04464FF6FF00044044EA0524B3
:1031D00021464220FFF708FF70BD70B50546032069
:1031E000FFF71EFF04464FF6F370044044EA8504DF
:1031F00021460320FFF7F8FE70BD70B50546032099
:10320000FFF70EFF04464FF6FC7004402C432146A6
:103210000320FFF7E9FE70BD2DE9F04706460027C1
:10322000B8460320FFF7FCFE044604F01F04C4F375
:10323000810804F003070FB90A2704E0012F01D128
:10324000142700E00527B8F1000F02D142F2FC1567
:1032500010E0B8F1010F02D0B8F1020F02D141F62F
:10326000B05507E05320FFF7DBFE054605EB850070
:103270004004050CAE4201DABDE8F087701B90FBFC
:10328000F7F01FFA80F9C9F3090944EA891444F0F8
:10329000100421460320FFF7A7FE1420FDF7F5F9DF
:1032A00000BF0B20FFF7BCFE10F0800FF9D000BF6D
:1032B000E2E72DE9F041002600270320FFF7B0FEEA
:1032C00004464FEAA418C4F3810704F003060EB9BC
:1032D0000A2604E0012E01D1142600E0052617B9C4
:1032E00042F2FC150EE0012F01D0022F02D141F66F
:1032F000B05507E05320FFF793FE054605EB850028
:103300004004050C08FB065084B22046BDE8F0815D
:1033100070B50025D948806940F00400D74988611C
:103320000846806940F0080088610846806940F0DE
:10333000100088610846806940F0200088610846D6
:10334000806940F480708861CD48006820F00F00EB
:10335000CB4908600846006840F008000860C8488B
:103360000830006840F48070C54908310860C548DD
:10337000006820F47F20C34908600846006840F4D4
:103380004C300860BF480C30006840F01800BD4960
:103390000C3108604FF08830BB4908600846C068AF
:1033A00040F0FF00C860B948006820F07060B7497D
:1033B00008600846006840F040700860B3480C3070
:1033C000006840F04000B1490C310860B0484068E6
:1033D00020F07F40AE4948600846406840F04C50BD
:1033E00048604FF4E030C8600120FDF770FA00F04B
:1033F00053F98021122000F05CFA08B1012070BD61
:103400003220FDF742F90B2000F072FA0446732CCB
:1034100001D00220F3E70A2000F06AFA0446762C75
:1034200001D00220EBE700250DE09A4A02EB4502AD
:103430005178984A12F8150000F03BFA0220FDF787
:1034400024F9681C85B2732DEFD30020D7E72DE94E
:10345000F0410446E72500260027012C06D0022C67
:1034600008D0032C0AD0042C10D10BE0E5255A26F5
:103470005C270BE0E5255826602707E0E525842634
:103480004C2703E0E5259626402700BF00BF2946CC
:10349000132000F00EFA3146012000F00AFA3946F6
:1034A000022000F006FABDE8F0812DE9F041044663
:1034B000802522265E2734B1012C08D0032C0AD0A7
:1034C000042C10D10BE0402511262F270BE0662598
:1034D0001B264B2707E099252826712703E0C025E6
:1034E00033268D2700BF00BF29464F2000F0E1F9A9
:1034F0002946502000F0DDF90021512000F0D9F9D3
:103500003146522000F0D5F93946532000F0D1F968
:103510002946542000F0CDF99E21582000F0C9F929
:10352000BDE8F08170B50446002534B1012C06D009
:10353000032C06D0042C08D105E0B02505E0982521
:1035400003E0182501E0302500BF00BF29465520C3
:1035500000F0AFF970BD70B50446402534B1012CC0
:1035600006D0032C06D0042C08D105E0302505E058
:10357000382503E0502501E0602500BF00BF294643
:10358000562000F096F970BD2DE9F041044604255F
:10359000C0268027072C1DD2DFE804F01C04080C8D
:1035A0001014180024258026802713E01425802677
:1035B00080270FE01425C02680270BE01425402625
:1035C000402707E014258026C02703E01425A02605
:1035D000402700BF00BF29463A2000F06AF9314673
:1035E000682000F066F93946672000F062F9BDE80E
:1035F000F0812DE9F04705460E469046994605EBC9
:1036000048001FFA80FA06EB490087B2B7F5447FFD
:1036100002DDA7F5447087B2032000F069F9044683
:1036200004F0F0040AF00301284661F39F0004430C
:103630002146032000F03DF9C5F38701192000F071
:1036400038F9CAF387011A2000F033F9322000F06C
:103650004FF9044604F0C00407F00701304661F357
:10366000DF000443C6F3C701172000F022F9C7F3B7
:10367000C701182000F01DF9BDE8F08700100240D6
:1036800004080140000C01400010014000140140FA
:10369000002001407A730008A948806940F48070D6
:1036A000A74988610846806940F020008861A548E4
:1036B000406820F47000A34948600846406840F420
:1036C000000048600846C06840F40050C8609E484A
:1036D000006820F470409C4908600846006840F487
:1036E0004050086098480C30006840F00800964947
:1036F0000C3108609348406820F47000914948609C
:103700000846406840F440104860704710B50120FA
:103710008E4908608E49C1F88C014FF03200FCF7E9
:1037200099FF0020894908604FF03200FCF792FFB2
:1037300000208749C1F88C0110BD10B500208349D5
:1037400008604FF03200FCF785FF01208049C1F886
:103750008C013220FCF77EFF01207C4908604FF08D
:103760003200FCF777FF10BD10B53220FCF772FF76
:103770000120764908607649C1F88C014FF032008B
:10378000FCF768FF0020734908604FF03200FCF737
:1037900061FF00207049C1F8B4013220FCF75AFFE4
:1037A00010BD70B5044600261EE014F0800F03D053
:1037B00001206649086002E00020644908604FEA81
:1037C00044604FEA10644FF03200FCF743FF0120E1
:1037D000604908604FF03200FCF73CFF00205C4974
:1037E000C1F88C01701CC6B2082EDEDB554840685B
:1037F00020F47000534948600846406840F40000D7
:1038000048603220FCF726FF0120524908604FF043
:103810003200FCF71FFF5048D0F8340108B10125F1
:1038200000E0002500204B4908604648406820F42D
:103830007000444948600846406840F440104860C1
:10384000284670BD70B500243E48406820F47000E2
:103850003C4948600846406840F40000486008253C
:1038600018E03220FCF7F6FE01203A4908604FEAE2
:1038700044604FEA10643848D0F8340108B1601C45
:10388000C4B23220FCF7E6FE002032490860A5F100
:103890000100C5B2002DE4DC2A48406820F4700025
:1038A000284948600846406840F440104860204677
:1038B00070BD70B505460C460026FFF727FF422075
:1038C000FFF76FFF00B101266420FCF7C3FE284616
:1038D000FFF767FF00B101266420FCF7BBFE20461E
:1038E000FFF75FFF00B10126FFF727FF304670BDED
:1038F00070B504460025FFF709FF4220FFF751FF8E
:103900006420FCF7A7FE2046FFF74BFF6420FCF77E
:10391000A1FEFFF712FF6420FCF79CFEFFF7F6FE06
:103920004320FFF73EFF6420FCF794FEFFF78AFF79
:103930000546FFF719FFFFF700FF284670BD00009E
:10394000001002400020014000140140B401244254
:10395000008022428C812242000024426348406958
:1039600040F48070614948610846806940F0200059
:1039700088610846806940F0400088610846806997
:1039800040F0800088610846806940F4807088615A
:10399000574800680020564908600846006840F013
:1039A000BB300860081F006800F0FF20091F086096
:1039B0000846006840F0BB1008604E4800680020D0
:1039C0004C4908600846006840F0BB300860081F9A
:1039D0000068494908404749091F086008460068CF
:1039E000464908434349091F08604548006880B2BA
:1039F0004349086008460068424908434049086056
:103A0000081F006800F07F40091F08600846006832
:103A10003D4908433A49091F08603C48406820F482
:103A200070603A4948600846406840F43060486039
:103A30000846006800F07F40086008460068324988
:103A400008433249086000204FF020410861486176
:103A50002F4908604FF02040006940F480504FF03B
:103A6000204108610846006920F0100008610846FE
:103A7000406940F440704861084640694861084622
:103A8000406948616FF07040C1F814010846006950
:103A900040F001000861704710B506E004784FF06F
:103AA000D0435C54491C401C521E002AF6D110BD64
:103AB00006E04FF0D0435B5C00F8013B491C521E0E
:103AC000002AF6D1704713B504460122214601A809
:103AD000FFF7E2FF1CBD18B50446012221466846E7
:103AE000FFF7E6FF9DF8000018BD0000001002403F
:103AF000041401400418014000FFFF0FBB0000B098
:103B0000041C01400000BBBBBBBBBB00002001404C
:103B1000140100A030B589B004461E2308AA6946E6
:103B2000204600F037FA054615B1012009B030BD36
:103B30009DF820000444002008900EE0C6489DF83F
:103B4000202050F82210684600F08CF900B908E0F7
:103B50009DF82000401CC0B208909DF82000082865
:103B6000ECDB00BF9DF8200007280CD2DFE800F056
:103B70000405060708090A0000BF06E005E004E0A6
:103B800003E002E001E00120D0E700BF0020CDE724
:103B900010B54FF08040008A10F0010F02D0AF49FD
:103BA000086980474FF08040008A20F001004FF004
:103BB0008041088210BD70B505460C46A848C06912
:103BC00040F00100A649C861880485850485808984
:103BD00040F00100890488810846808940F0400057
:103BE00088810846008840F00100088002231C22DA
:103BF00003210846FCF780FD70BD10B5044604EBB8
:103C0000C40000EB04100122C2EB800081B24FF42B
:103C10007A70FFF7D0FF01209049C87510BD30B50C
:103C200095B0054613AB12AA09A9284600F0D8F9A9
:103C3000044614B1204615B030BD0020149026E093
:103C4000864909689DF8502001EBC20113AB11AA07
:103C5000486801A900F0C4F904460CB12046EAE71F
:103C600009A901A800F0FEF860B99DF844009DF88C
:103C70004810884201DD0220DDE79DF850007749B9
:103C800088750AE09DF85000401CC0B2149073483B
:103C9000007D9DF850108842D2DC00BF6F48007D47
:103CA0009DF85010884201D10420C4E714A9284689
:103CB00000F0DDFA04460CB12046BCE79DF8500048
:103CC000664948750020B6E7F0B59BB06348847D2F
:103CD000007DA04201DC1BB0F0BD6049096801EB2A
:103CE000C40107AB08AA486809A900F079F90026C1
:103CF00001E0701CC6B29DF820008642F9DB5748EF
:103D0000407D0B280DD2DFE800F0060D151E27328E
:103D10003F4E5F7287005149096851F8340080476F
:103D2000054690E04D4A126852F8341011988847C1
:103D3000054688E0494B1B6853F83420DDE9110142
:103D4000904705467FE0454F3F6857F8343011A84B
:103D500007C89847054676E0DFF800C1DCF800C0E8
:103D60005CF8347011A80FC8B84705466BE0159889
:103D7000DFF8E8C00090DCF800C05CF8347011A8EF
:103D80000FC8B84705465EE0DDE91501DFF8CCC095
:103D9000CDE90001DCF800C05CF8347011A80FC850
:103DA000B84705464FE0DDE916211598DFF8ACC0AD
:103DB000CDE901210090DCF800C05CF8347011A856
:103DC0000FC8B84705463EE0DDE91513DDE91702E7
:103DD000DFF888C0CDE90013CDE90202DCF800C0AD
:103DE0005CF8347011A80FC8B84705462BE0DDE930
:103DF0001623DDE91810CDE90123CDE9031015984C
:103E0000DFF858C00090DCF800C05CF8347011A8EE
:103E10000FC8B847054616E0DDE91723DDE919109C
:103E2000CDE90223CDE90410DDE91501DFF82CC04E
:103E3000CDE90001DCF800C05CF8347011A80FC8AF
:103E4000B847054600BF00BF00BF44E770470146C2
:103E5000086870470160704794000020340100201A
:103E60000010024002460AE010780B78984201D018
:103E700001207047107800B902E0521C491CF3E79A
:103E800000BF0020F5E706E002780A70027802B968
:103E900002E0401C491CF7E700BF704701460020C4
:103EA00005E00A7802B903E0421CD0B2491CF8E7E9
:103EB00000BF704710B50246012000E050430B00E0
:103EC000A1F10104E1B2F9D110BD2DE9F04307469B
:103ED0000E4600254FF00A083C46002030601FE0E7
:103EE0002078392802DC207830280ADA2078462821
:103EF00002DC2078412804DA2078582809D1012DE5
:103F000007D12078412801DB4FF01008681CC5B2AA
:103F100005E0207800B904E00120BDE8F083641CCE
:103F2000DEE700BF3C46B8F1100F0FD1032D01DAD8
:103F30000220F2E72078302806D16078582803D193
:103F4000A41CA81EC5B204E00320E6E70DB90420B6
:103F5000E3E71BE00DB1681EC5B22078392806DC06
:103F60002078302803DB2078A0F1300902E02078A7
:103F7000A0F1370929464046FFF79CFF316809FB4D
:103F800000103060641C207800B900E0E2E700BF58
:103F90000020C2E710B50446002010700BE0207826
:103FA0000870641C491C1078401C107010789842EE
:103FB00001DB012010BD2078202802D020780028C5
:103FC000EDD10020087000BFF4E70146491C00E075
:103FD000491C0878202801D10029F9D108787047B8
:103FE0002DE9FF4F85B080468946002700200490C8
:103FF0000390012002904FF0000B002544461DE085
:104000002078202816D005F07F00052812DA0DB997
:1040100045F0800505F07F00042803D120782A2888
:1040200000D00EE0207805F07F010DF80100681C3B
:10403000C5B202E0852D00D103E0641C2078002881
:10404000DED100BF8DB1002005F07F010DF8010029
:10405000C8A16846FFF706FF18B90021089801704B
:1040600002E001210898017000254FF0000A444643
:1040700014E0641C0AF1010000F0FF0A20782028F7
:1040800002D020782A2809D12046FFF79EFF064655
:10409000282E03D02A2E01D0CDF810A02078282871
:1040A00002D020780028E4D14446049810B1049846
:1040B000401C04444FF0000A002654E0207810B958
:1040C0004FF0010A50E02078282803D116B9781C57
:1040D000C7B213E02078292808D13EB917B1781E5D
:1040E000C7B201E04FF0010A47B93DE0207822282D
:1040F00004D10EB9012000E00020064647B920781F
:1041000020282FD0207889F8000009F1010929E042
:1041100020782C2804D101200290681CC5B214E03C
:104120002078202811D0207828280ED04DB9BBF156
:10413000050F06DA20780DF80B000BF1010000F0F6
:10414000FF0B0298401CC0B20290012F0AD10298C6
:10415000022807D10298401CC0B202900398401C6C
:10416000C0B20390641CA9E700BF0398012809D1DD
:1041700000200DF80B007FA16846FFF773FE08B919
:1041800000200390079903980870002089F8000028
:10419000504609B0BDE8F08FF0B503461546002043
:1041A0000022002600244FE01F782C2F01D104B9F3
:1041B00001221F78292F01D01F780FB904B944E0DC
:1041C000002E34D11F78302F02DB1F78392F11DDFC
:1041D0001F78612F02DB1F78662F0BDD1F78412FC0
:1041E00002DB1F78462F05DD1F78582F02D01F787D
:1041F000782F0CD102B128E01F78612F03DB1F78E4
:10420000203F0F7001E01F780F70491C19E01F78E4
:10421000222F04D102B118E00126012411E01F78F9
:10422000202F0ED01F782C2F0BD0FF260DE01F78EB
:10423000222F00D1002402B107E014B11F780F70C3
:10424000491C471CF8B25B1CAEE700BF00270F708B
:104250002E70F0BD02460020002105E0474B5B5C5C
:104260000344D8B24B1CD9B29142F7DB70472DE919
:10427000F043B5B005460F460024002604E00021B7
:104280003E488155701CC6B20A2EF8DB06E06D1C54
:10429000287818B9012035B0BDE8F083287828289F
:1042A000F5D16D1C61E034AA69462846FFF774FF1A
:1042B000064635449DF8D00020B1012827D0FF28BC
:1042C0004CD149E09DF8000000B333A96846FFF7E0
:1042D000FCFD06460EB10220DDE72046FFF7BAFFDF
:1042E00026490A31339A0A50A1F12400008B01219A
:1042F000A140884321491A39088304211F480155E8
:10430000601CC4B20A2C01DD0320C4E726E0684625
:10431000FFF7C4FD401C00F0FF082046FFF79AFF9E
:1043200016490A3100EB010949466846FFF7ABFD23
:1043300012481A38018B0120A040014388B20F496E
:104340001A3908830D4800F80480601CC4B20A2C96
:1043500001DD03209FE701E002209CE700BF2878F1
:10436000292801D0287800B900E09CE700BF3C7004
:10437000002090E7766F6964000000004E01002085
:1043800001B5A8B0FE482790FE482690FE4825902B
:10439000FE482490FE482390FE482290FE4821903B
:1043A0002898129000201F9093E11298B0F9001005
:1043B000B0F90E0008441E901298B0F90210B0F93E
:1043C0000C0008441D901298B0F90410B0F90A00CE
:1043D00001441C911298B0F90610B0F9080001448C
:1043E0001B911B991E9808441A90DDE91C10084483
:1043F00019901298B0F90010B0F90E00081A189030
:104400001298B0F90210B0F90C00081A179012981F
:10441000B0F90410B0F90A00091A16911298B0F90F
:104420000610B0F90800091A159115991898401A44
:104430001490DDE91610401A1390DDE919100844B4
:10444000079002F00FFD0890249902F037FD0990C3
:1044500002F0CCFC01B212980180159802F002FD26
:104460000690219902F02AFD0890169802F0FAFCB5
:104470000490239902F022FD0690179802F0F2FCB6
:104480000290259902F01AFD0490189802F0EAFCB7
:104490000290279902F012FD0390049902F082FB2A
:1044A0000590069902F07EFB0790089902F07AFBCE
:1044B000099002F09BFC01B212984180139802F01F
:1044C000D1FC0690229902F0F9FC0890149802F0B1
:1044D000C9FC0690269902F0F1FC0790089902F0B9
:1044E00061FB099002F082FC01B21298818015985C
:1044F00002F0B8FC0690239902F0E0FC08901698B0
:1045000002F0B0FC0490279902F0D8FC06901798AE
:1045100002F0A8FC0290219902F0D0FC04901898B7
:1045200002F0A0FC0290259902F0C8FC03900499C7
:1045300002F0A2FD0590069902F09EFD07900899F1
:1045400002F09AFD099002F051FC01B21298C1806C
:10455000DDE91910401A079002F084FC08902499B4
:1045600002F0ACFC099002F041FC01B2129801810A
:10457000159802F077FC0690259902F09FFC0890B0
:10458000169802F06FFC0490219902F097FC0690B7
:10459000179802F067FC0290279902F08FFC0490B4
:1045A000189802F05FFC0290239902F087FC0390B8
:1045B000049902F061FD0590069902F0F3FA079064
:1045C000089902F0EFFA099002F010FC01B212987B
:1045D0004181139802F046FC0690269902F06EFC89
:1045E0000890149802F03EFC0690229902F066FCB6
:1045F0000790089902F040FD099002F0F7FB01B224
:1046000012988181159802F02DFC0690279902F0EE
:1046100055FC0890169802F025FC0490259902F0AC
:104620004DFC0690179802F01DFC0290239902F0B1
:1046300045FC0490189802F015FC0290219902F0B4
:104640003DFC0390049902F017FD0590069902F0D5
:10465000A9FA0790089902F00FFD099002F0C6FB35
:1046600001B21298C1811298B0F90000411012985D
:1046700001801298B0F902004110129841801298FE
:10468000B0F904004110129881801298B0F9060028
:1046900041101298C1801298B0F908004110129888
:1046A00001811298B0F90A004110129841811298C4
:1046B000B0F90C004110129881811298B0F90E00E7
:1046C00041101298C1811298103012901F98401C0E
:1046D0001F901F980828FFF668AE289812900020B7
:1046E0002090BEE112980890002009900AE00AAAE2
:1046F000DDE9080142F82100089810300890099877
:10470000401C099009980828F1DB0A98B0F90000CC
:104710001199B1F9001008441E900B98B0F90000EF
:104720001099B1F9001008441D900C98B0F90000E0
:104730000F99B1F9001008441C900D98B0F90000D1
:104740000E99B1F9001008441B901B991E9808445B
:104750001A90DDE91C10084419900A98B0F900007D
:104760001199B1F90010401A18900B98B0F9000097
:104770001099B1F90010401A17900C980EE0000043
:10478000B5157B3FB6846C3F2FDD543F8104353F28
:10479000CD3B0E3F41F1C33E4BC8473EB0F9000050
:1047A0000F99B1F90010401A16900D98B0F9000059
:1047B0000E99B1F90010401A159015991898401AE1
:1047C0001490DDE91610401A1390DDE91910084421
:1047D000059002F047FB0690249902F06FFB0790CA
:1047E00002F004FB00B20A990880159802F03AFB27
:1047F0000490219902F062FB0690169802F032FBB9
:104800000290239902F05AFB0490179802F02AFBB9
:104810000090259902F052FB0290189802F022FBBA
:104820000090279902F04AFB0190029902F0BAF930
:104830000390049902F0B6F90590069902F0B2F9D6
:10484000079002F0D3FA00B20B990880139802F097
:1048500009FB0490229902F031FB0690149802F0B3
:1048600001FB0490269902F029FB0590069902F0BD
:1048700099F9079002F0BAFA00B20C9908801598DD
:1048800002F0F0FA0490239902F018FB06901698B3
:1048900002F0E8FA0290279902F010FB04901798B2
:1048A00002F0E0FA0090219902F008FB02901898BB
:1048B00002F0D8FA0090259902F000FB01900299CD
:1048C00002F0DAFB0390049902F0D6FB05900699FA
:1048D00002F0D2FB079002F089FA00B20D9908802D
:1048E000DDE91910401A059002F0BCFA06902499EF
:1048F00002F0E4FA079002F079FA00B20E9908800B
:10490000159802F0AFFA0490259902F0D7FA0690B4
:10491000169802F0A7FA0290219902F0CFFA0490BB
:10492000179802F09FFA0090279902F0C7FA0290B8
:10493000189802F097FA0090239902F0BFFA0190BC
:10494000029902F099FB0390049902F02BF905906B
:10495000069902F027F9079002F048FA00B20F9981
:104960000880139802F07EFA0490269902F0A6FAC5
:104970000690149802F076FA0490229902F09EFABA
:104980000590069902F078FB079002F02FFA00B22A
:1049900010990880159802F065FA0490279902F0A2
:1049A0008DFA0690169802F05DFA0290259902F0B1
:1049B00085FA0490179802F055FA0090239902F0B6
:1049C0007DFA0290189802F04DFA0090219902F0B9
:1049D00075FA0190029902F04FFB0390049902F0DE
:1049E000E1F80590069902F047FB079002F0FEF906
:1049F00001B2119801800A98B0F9000040100A999C
:104A000008800B98B0F9000040100B9908800C98B2
:104A1000B0F9000040100C9908800D98B0F9000022
:104A200040100D9908800E98B0F9000041100E98C2
:104A300001800F98B0F9000040100F99088010987D
:104A4000B0F900004010109908801198B0F90000EA
:104A50004010119908801298801C12902098401CD8
:104A6000209020980828FFF63DAE29B000BD2DE922
:104A7000F34FB1B042F6624ACDF8C0A042F2A05A5C
:104A8000CDF8BCA041F6241ACDF8B8A040F6D40A5F
:104A9000CDF8B4A04BF2055ACDF8B0A042F6CF1A2B
:104AA000CDF8ACA041F2511ACDF8A8A03198002160
:104AB00008E0DDF8C4A03AF911A0DFF818B64BF809
:104AC00021A0491C4029F4D3002168E14FF0000ADD
:104AD000CDF800A05BE1B0F90060B0F91070B0F95A
:104AE00020C0B0F93080B0F94090B0F950A0CDF8B6
:104AF000A4A0B0F960A0CDF8A0A0B0F970A0CDF846
:104B00009CA0DDF89CA0B244CDF898A0DDF89CA054
:104B1000A6EB0A0A0FFA8AF3DDF8A0A0BA44CDF892
:104B200094A0DDF8A0A0A7EB0A0A0FFA8AFACDF844
:104B300064A0DDF8A4A0E244CDF88CA0DDF8A4A028
:104B4000ACEB0A0A0FFA8AFACDF868A008EB090A5A
:104B5000CDF890A0A8EB090A0FFA8AF2DDF890B020
:104B6000DDF898A0DA44CDF888A0DDF890B0DDF843
:104B700098A0AAEB0B0A0FFA8AFACDF880A0DDF80C
:104B80008CB0DDF894A0DA44CDF884A0DDF88CB0C8
:104B9000DDF894A0AAEB0B0A0FFA8AFACDF87CA0F4
:104BA00014461D46DDE919ABDA440FFA8AFACDF84E
:104BB0005CA0DDE919ABAAEB0B0A0FFA8AFACDF873
:104BC00060A04BF2055BDDF85CA00AFB0BFA47F630
:104BD000FF7BDA444FEA2A4ACDF854A04BF2055B3A
:104BE000DDF860A00AFB0BFA47F6FF7BDA444FEAD8
:104BF0002A4ACDF858A0DDE921BADA44CDF878A0E8
:104C0000DDE921BAAAEB0B0ACDF874A041F2511BE1
:104C1000DDF87CA00AFB0BFB42F6CF1EDDF880A07E
:104C20000EFB0ABACDF86CA041F2511BDDF880A052
:104C30000AFB0BFBDDF87CA00EFB1ABACDF870A0C6
:104C40002246DDF858A0A2440FFA8AFACDF84CA00B
:104C5000DDF858A0A4EB0A0A0FFA8AFACDF850A0A2
:104C60002B46DDF854A0AA440FFA8AFACDF844A0E6
:104C7000DDF854A0A5EB0A0A0FFA8AFACDF848A08D
:104C8000DDF878A0CDF840A0DDF874A0CDF830A014
:104C9000DDF86CA0CDF838A0DDF870A0CDF828A024
:104CA00040F6D40BDDF84CA00AFB0BFB42F6624E3B
:104CB000DDF844A00EFB0ABACDF83CA040F6D40BB8
:104CC000DDF844A00AFB0BFBDDF84CA00EFB1ABA82
:104CD000CDF824A042F2A05BDDF850A00AFB0BFB4C
:104CE00041F6241EDDF848A00EFB0ABACDF82CA030
:104CF00042F2A05BDDF848A00AFB0BFBDDF850A0F8
:104D00000EFB1ABACDF834A0DDF840A00FFA8AFAEB
:104D1000A0F800A0DDF83CA04FEA6A3A0FFA8AFA40
:104D2000A0F810A0DDF838A04FEA6A3A0FFA8AFA24
:104D3000A0F820A0DDF834A04FEA6A3A0FFA8AFA08
:104D4000A0F830A0DDF830A00FFA8AFAA0F840A051
:104D5000DDF82CA04FEA6A3A0FFA8AFAA0F850A0C0
:104D6000DDF828A04FEA6A3A0FFA8AFAA0F860A0A4
:104D7000DDF824A04FEA6A3A0FFA8AFAA0F870A088
:104D8000801CDDF800A00AF1010ACDF800A0DDF8D2
:104D900000A0BAF1080FFFF49EAE7030491CDDF898
:104DA000C8A05145FFF492AE319800217AE1B0F9E4
:104DB0000060B0F90270B0F904C0B0F90680B0F933
:104DC0000890B0F90AA0CDF8A4A0B0F90CA0CDF8D5
:104DD000A0A0B0F90EA0CDF89CA0DDF89CA0B24434
:104DE000CDF898A0DDF89CA0A6EB0A0A0FFA8AF38A
:104DF000DDF8A0A0BA44CDF894A0DDF8A0A0A7EB00
:104E00000A0A0FFA8AFACDF864A0DDF8A4A0E244F9
:104E1000CDF88CA0DDF8A4A0ACEB0A0A0FFA8AFA50
:104E2000CDF868A008EB090ACDF890A0A8EB090A14
:104E30000FFA8AF2DDF890B0DDF898A0DA44CDF8E8
:104E400088A0DDF890B0DDF898A0AAEB0B0A0FFA65
:104E50008AFACDF880A0DDF88CB0DDF894A0DA44B1
:104E6000CDF884A0DDF88CB0DDF894A0AAEB0B0A95
:104E70000FFA8AFACDF87CA014461D46DDE919AB7D
:104E8000DA440FFA8AFACDF85CA0DDE919ABAAEB97
:104E90000B0A0FFA8AFACDF860A04BF2055BDDF839
:104EA00060A00AFB0BFA47F6FF7BDA444FEA2A4A76
:104EB000CDF858A04BF2055BDDF85CA00AFB0BFABD
:104EC00047F6FF7BDA444FEA2A4ACDF854A0DDE9E1
:104ED00021BADA44CDF878A0DDE921BAAAEB0B0AB1
:104EE000CDF874A041F2511BDDF87CA00AFB0BFB4E
:104EF00042F6CF1EDDF880A00EFB0ABACDF86CA0FA
:104F000041F2511BDDF880A00AFB0BFBDDF87CA011
:104F10000EFB1ABACDF870A02246DDF858A0A244C4
:104F20000FFA8AFACDF84CA0DDF858A0A4EB0A0AD3
:104F30000FFA8AFACDF850A02B46DDF854A0AA4407
:104F40000FFA8AFACDF844A0DDF854A0A5EB0A0ABE
:104F50000FFA8AFACDF848A0DDF878A0CDF840A085
:104F6000DDF874A0CDF830A0DDF86CA0CDF838A045
:104F7000DDF870A0CDF828A040F6D40BDDF84CA0E9
:104F80000AFB0BFB42F6624EDDF844A00EFB0ABAA8
:104F9000CDF83CA040F6D40BDDF844A00AFB0BFB97
:104FA000DDF84CA00EFB1ABACDF824A042F2A05BAB
:104FB000DDF850A00AFB0BFB41F6241EDDF848A0EB
:104FC0000EFB0ABACDF82CA042F2A05BDDF848A097
:104FD0000AFB0BFBDDF850A00EFB1ABACDF834A08B
:104FE000DDF840A00AF1060A4FEAEA0ACDF820A04F
:104FF00047F6FF7BDDF83CA0DA444FEA2A4ACDF8B9
:105000001CA0DDF838A0DA444FEA2A4ACDF818A0EF
:10501000DDF834A0DA444FEA2A4ACDF814A0DDF8CE
:1050200030A00AF1040A4FEAEA0ACDF810A0DDF830
:105030002CA0DA444FEA2A4ACDF80CA0DDF828A0CB
:10504000DA444FEA2A4ACDF808A0DDF824A0DA4471
:105050004FEA2A4ACDF804A0DDF820A00FFA8AFA18
:10506000A0F800A0DDF81CA0A0F802A0DDF818A0B0
:10507000A0F804A0DDF814A0A0F806A0DDF810A0A8
:105080000FFA8AFAA0F808A0DDF80CA0A0F80AA090
:10509000DDF808A0A0F80CA0DDF804A0A0F80EA090
:1050A0001030491CDDF8C8A04FEACA0A8A453FF60D
:1050B0007EAE002108E0DDF8C4A03AF911A0DFF8C7
:1050C00014B04BF821A0491C4029F4D333B0BDE8FB
:1050D000F08F0000C81E002010B5CD4C4FF4827137
:1050E000204601F0AAF8002084F8FC00204610BDFC
:1050F000042180F8FC1070472DE9F0470446012098
:1051000084F8FC004FF000090020C4F8C400C4F883
:10511000C800804625E008EBC80104F11C0000EB44
:1051200081056E68AF68D4F8C400B04201DAC4F8F3
:10513000C460D4F8C800B84201DAC4F8C87006FBED
:10514000079906FB07F0A861A8694FEAC01AB148A1
:1051500000EB4820E8615146E86901F04CF808F19D
:105160000108A0694045D6DCB9F10A0F02DD012033
:1051700000F0B8FF04F14C04C4F86890A06F4FEA47
:10518000C000E066E06F4FEAC0002067D4E91B0171
:1051900000FB01F0606754F84C0CE16E90FBF1F0FD
:1051A000206654F84C0CE16EA4F14C0490FBF1F233
:1051B00001FB120020B1D4F8AC00401CC4F8AC00D4
:1051C000D4F8BC10606890FBF1F0C4F8B000D4F8DB
:1051D000BC10606890FBF1F201FB120020B1D4F822
:1051E000B000401CC4F8B00054F8AC0FE16848436C
:1051F00060642069A064D4E91101484354F8941C08
:105200004843E06484482064E16C206C00F0F3FFC4
:1052100000206065A4F1AC04BDE8F08710B5044639
:105220000820E060022020754FF07E5020610320AE
:10523000A061012020770121617702212162616252
:105240000021A162E1622163022184F8401084F808
:10525000411001216164A164E1642165616503215C
:1052600084F8641084F865100121A166E166216765
:105270006167A167204600F03FFB204600F0F1FB8C
:105280002046FFF739FF10BD2DE9F0470446894657
:1052900094F8FC00022802D0012000F023FFA56949
:1052A000D4F8F410D4F8000190FBF1F201FB1200E5
:1052B000D4F8F010694300FB01F8216801FB05F206
:1052C000D4F8EC1001EB0800494600F04FFF2068CD
:1052D000A0F1010A206800FB0588002612E00027E3
:1052E0000CE0A0690AFB007019F80000A26906FB37
:1052F00002823A44D4F8EC1088547F1CA069B8426A
:10530000EFDC761C2168D4F8F000401AB042E6DCED
:1053100004F1F404E06800F10100E060E06854F892
:10532000F41990FBF1F201FB120040B9204600F0A5
:1053300014FAD4F8F810D4F8EC0000F05CFFBDE8E3
:10534000F08770B5044694F8FC00012802D00120D3
:1053500000F0C8FE204600F09AFD022084F8FC0010
:105360000020C4F80001002508E0002105EBC5027B
:1053700004F11C0000EB820001846D1CA069A842AE
:10538000F3DC70BD2DE9F041044694F8FC000228DE
:1053900002D0012000F0A6FED4F8F410D4F80001E9
:1053A00090FBF1F201FB120030B304F1840454F8D5
:1053B0006C1CE06E00FB01F5216FE06F90FBF1F2D9
:1053C00001FB1207A16EA4F18404A7F1010000FB08
:1053D000051877B13E4608E0D4F8EC1006FB05103E
:1053E0002A46414600F0C2FE761CD4F8F400B042D2
:1053F000F2DC204600F0B1F9204600F060F82046CB
:1054000000F05AFD032084F8FC00BDE8F0810000A4
:10541000C8230020143A0020001801680146002229
:1054200009B900207047002901DD084600E0484224
:10543000014600E0521C012090408842FADD1046EF
:10544000F0E72DE9F04106460F46144633E0C4F17B
:10545000200007FA00F8694800686949096828FAD5
:1054600001F10843654908606548006820446449C3
:1054700008600846006820281CDB03250DE05F4A11
:10548000505DB16800F0F6FD5C48405DFF2803D137
:105490000020B16800F0EEFD6D1E002DEFDA002057
:1054A0005649086056480068A0F12004002054497D
:1054B000086000E00024002CC9DCBDE8F08170B574
:1054C0000546032412E04D4A105DA96800F0D2FDA4
:1054D0004A48005DFF2803D10020A96800F0CAFDFA
:1054E000641E474800680838454908604448006819
:1054F0000828E8DC42480068002815DD3F48005DC8
:105500003F490A68FF21114108433C4908553B4A7D
:10551000105DA96800F0AEFD3848005DFF2803D19A
:105520000020A96800F0A6FD002034490860344935
:10553000086070BD2DE9FF4F81B00F4692461C46B2
:10554000B7F900804046FFF769FF81460AF5897088
:1055500030F819200AF2123030F819100198FFF7CC
:1055600070FFB8F1000F01DAA8F101084A46414680
:105570000198FFF766FF0025012632E037F8160094
:1055800008B96D1C2CE007E0B4F8F222B4F8F2146C
:105590000198FFF756FF103D0F2DF5DC37F9160087
:1055A000FFF73CFF814649EA051B04F5897030F896
:1055B0001B2004F2123030F81B100198FFF741FF56
:1055C00037F9160000900098002802DA0098401E73
:1055D00000904A46DDE90010FFF733FF002500BFC9
:1055E000761C402ECADB35B1B4F81221B4F8121380
:1055F0000198FFF726FF05B0BDE8F08F20020020DC
:10560000240200202DE9F04F89B007464FF0000931
:105610009CE009EBC90107F11C0000EB8100C069A7
:10562000089009EBC90107F11C0000EB8100C1687B
:1056300007F1DC0050F82100079009EBC90107F1E0
:105640001C0000EB8100016907F1CC0050F821003B
:10565000069009EBC90107F11C0000EB81004169CC
:1056600007F1D40050F8210005904FF0000A62E0E5
:1056700000200490089800EBCA18002606E038F8CD
:105680001600803800B228F81600761C402EF6DB93
:10569000002605E038F91600FE4941F82600761C80
:1056A000402EF7DB01214046FFF7E1F9404600F0CC
:1056B00047FC00261DE0079931F9160001F0D2FBE6
:1056C000019038F9160001F0CDFB0090019901F02E
:1056D000CBFA834601F03AFA0022EF4BCDE9020102
:1056E00000F0C6FE044601F0C3F800B228F8160028
:1056F000761C402EDFDBB8F900000490B8F80010EB
:1057000009EBC90207F11C0000EB8200008C081AAB
:1057100000B2A8F8000009EBC90207F11C0101EB77
:1057200082010498088441463846DDE90532FFF7D6
:1057300001FF0AF1010A09EBC90107F11C0000EBA6
:1057400081008069504593DC09F10109B869484539
:105750003FF75FAF09B0BDE8F08F2DE9FC5F04466D
:10576000207D022809D104F1EC04D4E9012302FBD5
:1057700003F154F8EC0900F0F9FBD4F8EC70A169DE
:10578000D4F8B80000FB01F800267EE0002574E0A4
:105790007A19019205EBC50B04F11C0202EB8B0296
:1057A000D4F8C4A052689AFBF2F2D4F818A002FB15
:1057B0000AF305EBC50B04F11C0202EB8B02D4F8D3
:1057C000C8A092689AFBF2F2D4F818A002FB0AF281
:1057D000D4F8F0A002FB0AFC002144E005EBC50B65
:1057E00004F11C0202EB8B02526891FBF2FB02FBFC
:1057F0001B124FEAC20B019A0BFB032205EBC50BF0
:1058000004F11C0E0EEB8B0BDBF808B091FBFBFBDD
:105810004FEACB0B0BFB0C2A05EBC50B724602EBD8
:105820008B02D26902EBC1120092002018E04FEA0D
:10583000E07B00EB5B7B4FEAEB0BB0EBCB0B08D1D3
:1058400002464FEAE07B00EB5B7B4FEAEB0B0BFB86
:105850000CA999F800B0009A22F810B09944401CA5
:105860004028E4DB491C05EBC50A04F11C0202EBED
:105870008A0292698A42B1DC6D1CA069A84287DC69
:1058800047442046FFF7BEFE761CD4F8AC00B04279
:105890003FF77CAFBDE8FC9F2DE9FF5F80460E46D9
:1058A00091469A467D4800EBC61108F1DC0040F8AD
:1058B000261050F826B0002717E039F8170001F03D
:1058C000E9FA5146009001F0F9FA019001F03EF931
:1058D00004460022704B00F0CBFDCDE9020100F040
:1058E000C7FF00B22BF817007F1C402FE5DB58469E
:1058F00000F026FBBDE8FF9F10B50446684A002172
:1059000020462369FFF7C8FF664A01212046236924
:10591000FFF7C2FF10BDF0B50246002001210BE0E9
:10592000012605E0DFF880C12CF81010401C761C21
:10593000575CB742F6DA491C1029F1DD0027DFF881
:1059400068C12CF8107005460020002367463C888B
:105950001EE00BE0DFF854C12CF810305B1C401C3B
:10596000514F37F81070A74200D000E0F2E700BFB7
:105970004D4F37F8107007B90BE007E05B00641C6F
:10598000494F37F81070A74200D100E0F6E700BF9A
:10599000DFE700BF002000BF02F11107395C434F71
:1059A00037F810C002F2123727F811C03E4F37F80F
:1059B00010C002F5897727F811C0401CA842EBDB24
:1059C000F0BD2DE9F05F81460C4616469A46DDF89B
:1059D00028B0022C01D9BDE8F09F16B909F1CC0519
:1059E00005E0012E02D109F1D40500E0F3E706EB52
:1059F000440040F2892148432D4901EB400045F81D
:105A0000240055F824001122514600F0AFFB002776
:105A10004FF0010804E01AF80800074408F10108F3
:105A2000B8F1100FF7DD3A4655F8241001F11100D6
:105A3000594600F09BFB55F8241001F212304FF448
:105A4000007100F0D8FB55F8241001F589704FF46F
:105A5000007100F0D0FB55F82400FFF75CFF00BF99
:105A6000B9E738B504461348134B0022114600909D
:105A70002046FFF7A6FF1148114B0122002100909C
:105A80002046FFF79EFF0F480F4B00220121009098
:105A900020461BE0C81E00200000E03FCC24002070
:105AA00060740008E0740008C81F0020C8210020AE
:105AB000CC2500207175000860750008AB750008E2
:105AC0009A7500088E7500087D750008FFF779FF4C
:105AD0000448054B0122114600902046FFF771FF54
